:020000040000FA
:06000000ACEF1BF0120042
:020006001200E6
:060008008EEF19F012005A
:02000E000000F0
:020010000000EE
:060018001CEF19F01200BC
:02001E000600DA
:1000200041380000000F00002800000026380000C2
:10003000E10000001B0000000E000000670F000040
:1000400004000000C53700008000000061000000CF
:10005000B0370000480F0000150000009037000086
:08006000280F00002000000041
:08006800D9CFE6FFE1CFD9FF7B
:10007000020EE126DE6ADD6A93D838EC0EF02FEC32
:1000800010F00ED9E80EE66E030EE66E45D8E55286
:10009000E552CA0EE66E340EE66E030EE66EE66AB2
:1000A000F2EC0FF0E552E552E552E55226D9D00EBA
:1000B000E66E070EE66E30D8E552E552C7EC05F065
:1000C0000F013351FDE0336BDBEC12F0DECF10F0AB
:1000D000DDCF11F0010E1026000E1122D00E0D6E94
:1000E000070E0E6E10C008F011C009F086EC1BF070
:1000F00004C010F005C011F004C0DEFF05C0DDFF34
:1001000012D9C7EC05F0C5EC08F0E7EC09F01CECDF
:100110000AF01DEC11F0D4D7D9CFE6FFE1CFD9FF1B
:10012000040EE126DE6ADD6ADECF10F0DDCF11F0CD
:10013000FD0EDBCF12F0FE0EDBCF13F011501318C3
:10014000E8AE02D0133404D01250105C1350115892
:100150001DE2020EDB6A030EDB6A020EDBCF10F03B
:10016000030EDBCF11F0D890115004E6EE0E105CB8
:10017000000E115806E2020EDB2A030EEEE3DB2A24
:10018000ECD7DF2A010ED0E3DB2ACED7040EE15CE8
:1001900002E2E16AE552E16EE552E7CFD9FF1200D3
:1001A000936A956A8FEC0CF014EC19F0E80EE66E89
:1001B000030EE66EB1DFE552E552570EE66E120E03
:1001C000E66E69EC15F0E552E552AE0EE66E240ED1
:1001D000E66E0BEC16F0E552E552660EE66EB70ED3
:1001E000E66ECCEC16F0E552E552020EE66EE66ADB
:1001F000A7EC17F0E552E5520A0EE66EE66AB9EC96
:1002000017F0E552E552320EE66EE66AD8EC17F0CA
:10021000E552E552CFEC12F041EF18F00F01486BB8
:10022000496B4A6B010E4B6F4C6F4D6F170E4E6F43
:100230004ACFE6FFE66AF6EC18F0E552E55249CF00
:10024000E6FF010EE66EF6EC18F0E552E55248CFF7
:10025000E6FF020EE66EF6EC18F0E552E5524BCFE3
:10026000E6FF030EE66EF6EC18F0E552E5524CCFD1
:10027000E6FF040EE66EF6EC18F0E552E5524DCFBF
:10028000E6FF050EE66EF6EC18F0E552E5524ECFAD
:10029000E6FF060EE66EF6EC18F0E552E5521200A7
:1002A000200EE66E07EC19F0E552220825E0B6DFD5
:1002B000E66A100EE66EF6EC18F0E552E552E66AD4
:1002C000110EE66EF6EC18F0E552E552E66A120EF3
:1002D000E66EF6EC18F0E552E552E66A130EE66EAD
:1002E000F6EC18F0E552E552220EE66E200EE66EB0
:1002F000F6EC18F0E552E5521200100EE66E07EC2F
:1003000019F0E5520F01566F110EE66E07EC19F069
:10031000E5520F01576F120EE66E07EC19F0E55229
:100320000F01586F1200020EE66E07EC19F0E5524D
:100330000F01486F010EE66E07EC19F0E5520F0150
:10034000496FE66A07EC19F0E5520F014A6F030E98
:10035000E66E07EC19F0E5520F014B6F040EE66EE6
:1003600007EC19F0E5520F014C6F050EE66E07EC35
:1003700019F0E5520F014D6F060EE66E07EC19F00D
:10038000E5520F014E6F2FEC10F00F014B51070A91
:1003900024E0010A1EE0030A18E0010A12E0070A3D
:1003A0000CE0010A06E0030A24E1C60EE66E340EF4
:1003B00017D0C20EE66E340E13D0BE0EE66E340EAB
:1003C0000FD0BA0EE66E340E0BD0B60EE66E340EBB
:1003D00007D0B20EE66E340E03D0AE0EE66E340ECB
:1003E000E66EE66AE66AA4EC12F0E552E552E552E2
:1003F000E5520F014D510C0A42E0070A3CE0010AA8
:1004000036E0030A30E0010A2AE00F0A24E0010A7C
:100410001EE0030A18E0010A12E0070A0CE0010AD4
:1004200006E0030A39E1AA0EE66E340E2BD0A60EC2
:10043000E66E340E27D0A20EE66E340E23D09E0E4A
:10044000E66E340E1FD09A0EE66E340E1BD0960E5A
:10045000E66E340E17D0920EE66E340E13D08E0E6A
:10046000E66E340E0FD08A0EE66E340E0BD0860E7A
:10047000E66E340E07D0820EE66E340E03D07E0E8A
:10048000E66E340EE66EE66A010EE66EA4EC12F03D
:10049000E552E552E552E5520A0E0F01485D1CE2B5
:1004A0007C0EE66E340EE66E040EE66EE66AA4EC92
:1004B00012F0E552E552E552E55248CF10F0116ACC
:1004C000126A136A48CFE6FF11C0E6FF12C0E6FFCA
:1004D00013C0E6FF050E0ED048CF10F0116A126A65
:1004E000136A48CFE6FF11C0E6FF12C0E6FF13C053
:1004F000E6FF040EE66EE66A7DEC11F0146E060E61
:10050000E15E14507A0EE66E340EE66E060EE66E6E
:10051000E66AA4EC12F0E552E552E552E5520A0E05
:100520000F01495D1CE27C0EE66E340EE66E070E8E
:10053000E66EE66AA4EC12F0E552E552E552E552A9
:1005400049CF10F0116A126A136A49CFE6FF11C051
:10055000E6FF12C0E6FF13C0E6FF080E0ED049CF3B
:1005600010F0116A126A136A49CFE6FF11C0E6FF64
:1005700012C0E6FF13C0E6FF070EE66EE66A7DECEA
:1005800011F0146E060EE15E14507A0EE66E340E13
:10059000E66E090EE66EE66AA4EC12F0E552E5524C
:1005A000E552E5520A0E0F014A5D1CE27C0EE66E32
:1005B000340EE66E0A0EE66EE66AA4EC12F0E55220
:1005C000E552E552E5524ACF10F0116A126A136AF9
:1005D0004ACFE6FF11C0E6FF12C0E6FF13C0E6FFF8
:1005E0000B0E0ED04ACF10F0116A126A136A4ACF6E
:1005F000E6FF11C0E6FF12C0E6FF13C0E6FF0A0ED9
:10060000E66EE66A7DEC11F0146E060EE15E1450A3
:100610000A0E0F014C5D1DE27C0EE66E340EE66E96
:10062000040EE66E010EE66EA4EC12F0E552E55201
:10063000E552E5524CCF10F0116A126A136A4CCFA2
:10064000E6FF11C0E6FF12C0E6FF13C0E6FF050E8D
:100650000ED04CCF10F0116A126A136A4CCFE6FF2D
:1006600011C0E6FF12C0E6FF13C0E6FF040EE66EFF
:10067000010EE66E7DEC11F0146E060EE15E145074
:10068000140EE66EE66AE66AE66A070EE66E010E8C
:10069000E66E7DEC11F0106E060EE15E10504ECF4E
:1006A00010F0116A126A136A4ECFE6FF11C0E6FF1E
:1006B00012C0E6FF13C0E6FF090EE66E010EE66EFD
:1006C0007DEC11F0146E060EE15E14500F015851CE
:1006D0000FE1760EE66E340EE66E0D0EE66E010E3E
:1006E000E66EA4EC12F0E552E552E552E552120036
:1006F00058050EE1730EE66E340EE66E0E0EE66ED3
:10070000010EE66EA4EC12F0E552E552E552E55218
:1007100012002FEC10F00F0153510C0A42E0070AAF
:100720003CE0010A36E0030A30E0010A2AE00F0A41
:1007300024E0010A1EE0030A18E0010A12E0070A99
:100740000CE0010A06E0030A3AE1AA0EE66E340E56
:100750002BD0A60EE66E340E27D0A20EE66E340E17
:1007600023D09E0EE66E340E1FD09A0EE66E340E27
:100770001BD0960EE66E340E17D0920EE66E340E37
:1007800013D08E0EE66E340E0FD08A0EE66E340E47
:100790000BD0860EE66E340E07D0820EE66E340E57
:1007A00003D07E0EE66E340EE66E030EE66E010E8C
:1007B000E66EA4EC12F0E552E552E552E5520F0167
:1007C0005B0504E16B0EE66E340E0DD0020E5B5D30
:1007D00004E1650EE66E340E06D0030E5B5D0CE19F
:1007E0005E0EE66E340EE66EE66AE66AA4EC12F081
:1007F000E552E552E552E5520A0E0F014F5D1CE24B
:100800007C0EE66E340EE66E080EE66EE66AA4EC2A
:1008100012F0E552E552E552E5524FCF10F0116A61
:10082000126A136A4FCFE6FF11C0E6FF12C0E6FF5F
:1008300013C0E6FF090E0ED04FCF10F0116A126AF6
:10084000136A4FCFE6FF11C0E6FF12C0E6FF13C0E8
:10085000E6FF080EE66EE66A7DEC11F0146E060EF9
:10086000E15E14507A0EE66E340EE66E0A0EE66E07
:10087000E66AA4EC12F0E552E552E552E5520A0EA2
:100880000F01505D1CE27C0EE66E340EE66E0B0E20
:10089000E66EE66AA4EC12F0E552E552E552E55246
:1008A00050CF10F0116A126A136A50CFE6FF11C0E0
:1008B000E6FF12C0E6FF13C0E6FF0C0E0ED050CFCD
:1008C00010F0116A126A136A50CFE6FF11C0E6FFFA
:1008D00012C0E6FF13C0E6FF0B0EE66EE66A7DEC83
:1008E00011F0146E060EE15E14507A0EE66E340EB0
:1008F000E66E0D0EE66EE66AA4EC12F0E552E552E5
:10090000E552E5520A0E0F014A5D1CE27C0EE66ECE
:10091000340EE66E0E0EE66EE66AA4EC12F0E552B8
:10092000E552E552E5524ACF10F0116A126A136A95
:100930004ACFE6FF11C0E6FF12C0E6FF13C0E6FF94
:100940000F0E0ED04ACF10F0116A126A136A4ACF06
:10095000E6FF11C0E6FF12C0E6FF13C0E6FF0E0E71
:10096000E66EE66A7DEC11F0146E060EE15E145040
:100970000A0E0F01525D1DE27C0EE66E340EE66E2D
:10098000070EE66E010EE66EA4EC12F0E552E5529B
:10099000E552E55252CF10F0116A126A136A52CF33
:1009A000E6FF11C0E6FF12C0E6FF13C0E6FF080E27
:1009B0000ED052CF10F0116A126A136A52CFE6FFBE
:1009C00011C0E6FF12C0E6FF13C0E6FF070EE66E99
:1009D000010EE66E7DEC11F0146E060EE15E145011
:1009E000140EE66EE66AE66AE66A0A0EE66E010E26
:1009F000E66E7DEC11F0106E060EE15E105054CFE5
:100A000010F0116A126A136A54CFE6FF11C0E6FFB4
:100A100012C0E6FF13C0E6FF0C0EE66E010EE66E96
:100A20007DEC11F0146E060EE15E145012002FECF6
:100A300010F0520EE66E340EE66E030EE66EE66AB7
:100A4000A4EC12F0E552E552E552E5520A0E0F0110
:100A5000565D1DE27C0EE66E340EE66E030EE66E0B
:100A6000010EE66EA4EC12F0E552E552E552E552B5
:100A700056CF10F0116A126A136A56CFE6FF11C002
:100A8000E6FF12C0E6FF13C0E6FF040E0ED056CFFD
:100A900010F0116A126A136A56CFE6FF11C0E6FF22
:100AA00012C0E6FF13C0E6FF030EE66E010EE66E0F
:100AB0007DEC11F0146E060EE15E14507A0EE66EB7
:100AC000340EE66E050EE66E010EE66EA4EC12F034
:100AD000E552E552E552E5520A0E0F01575D1DE25F
:100AE0007C0EE66E340EE66E060EE66E010EE66EC7
:100AF000A4EC12F0E552E552E552E55257CF10F062
:100B0000116A126A136A57CFE6FF11C0E6FF12C0DE
:100B1000E6FF13C0E6FF070E0ED057CF10F0116AA4
:100B2000126A136A57CFE6FF11C0E6FF12C0E6FF54
:100B300013C0E6FF060EE66E010EE66E7DEC11F0C8
:100B4000146E060EE15E14500F0158510FE1760E3F
:100B5000E66E340EE66E0B0EE66E010EE66EA4EC4B
:100B600012F0E552E552E552E552120058050EE149
:100B7000730EE66E340EE66E0B0EE66E010EE66E3A
:100B8000A4EC12F0E552E552E552E55212000F01D5
:100B90005551690A01E1A8D2010A01E148D20F0AC0
:100BA00001E1E9D1010A01E18CD1030A01E132D16D
:100BB000010A01E1D6D0650A09E0010A01E012004C
:100BC00005EC15F0010801E0DFD28AD25A0537E1C1
:100BD0002FEC10F0450EE66E340EE66EE66AE66A1D
:100BE000A4EC12F0E552E552E552E552430EE66EF2
:100BF000340EE66E0F0EE66EE66AA4EC12F0E552D5
:100C0000E552E552E552360EE66E340EE66EE66AC1
:100C1000010EE66EA4EC12F0E552E552E552E55203
:100C200047EC15F0010803E10F01020E5A6F25ECA5
:100C300015F0010801E077D00F01030E73D0020E0A
:100C40005A5D37E12FEC10F0450EE66E340EE66E7D
:100C5000E66AE66AA4EC12F0E552E552E552E55286
:100C6000360EE66E340EE66EE66A010EE66EA4EC13
:100C700012F0E552E552E552E552430EE66E340EAF
:100C8000E66E0F0EE66E010EE66EA4EC12F0E55273
:100C9000E552E552E55247EC15F0010803E10F017A
:100CA000030E5A6F25EC15F001083DE10F01010E0E
:100CB00039D0030E5A5D37E12FEC10F0360EE66E98
:100CC000340EE66EE66AE66AA4EC12F0E552E552EE
:100CD000E552E552270EE66E340EE66EE66A010E28
:100CE000E66EA4EC12F0E552E552E552E552430EF1
:100CF000E66E340EE66E0F0EE66E010EE66EA4ECA6
:100D000012F0E552E552E552E55247EC15F00108C4
:100D100003E10F01010E5A6F25EC15F0010803E104
:100D20000F01020E5A6F15EC15F0010812E10F01C8
:100D30005A0502E1640E0BD0020E5A5D02E16A0E02
:100D400006D0030E5A5D05E1010E5B6F020E556F72
:100D5000596B05EC15F0010801E016D20F01556B37
:100D600012005929106E140E116E0E6E10C009F08B
:100D7000BAEC1BF005C059FF93EC01F0050E0F0112
:100D8000595D0DE2240EE66E340EE66E040EE66E3C
:100D9000E66AA4EC12F0E552E552E552E55225EC84
:100DA00015F001080EE10F01482B4851170801E228
:100DB000486B48CFE6FF020EE66EF6EC18F0E552FF
:100DC000E55247EC15F001080FE10F0148074851C3
:100DD000170802E2170E486F48CFE6FF020EE66ED4
:100DE000F6EC18F0E552E55215EC15F0010804E1B7
:100DF0000F01650E556F596B1DEC15F0010804E1EC
:100E00000F01556B2FEC10F005EC15F0010801E017
:100E1000BBD166D15929106E140E116E0E6E10C022
:100E200009F0BAEC1BF005C059FF050E0F01055C77
:100E30000DE2240EE66E340EE66E070EE66EE66AEE
:100E4000A4EC12F0E552E552E552E55225EC15F01E
:100E500001080EE10F01492B49513B0801E2496BA2
:100E600049CFE6FF010EE66EF6EC18F0E552E552CA
:100E700047EC15F001080FE10F01490749513B0804
:100E800002E23B0E496F49CFE6FF010EE66EF6EC3B
:100E900018F0E552E55215EC15F0010804E10F01D8
:100EA000660E556F596B1DEC15F0010804E10F013A
:100EB000556B2FEC10F005EC15F0010801E064D142
:100EC0000FD15929106E140E116E0E6E10C009F05C
:100ED000BAEC1BF005C059FF050E0F01055C0CE2D2
:100EE000200EE66E340EE66EE66AE66AA4EC12F0B8
:100EF000E552E552E552E55225EC15F001080FE107
:100F00000F014B2B4B51070802E2010E4B6F4BCFE9
:100F1000E6FF030EE66EF6EC18F0E552E55247ECFC
:100F200015F0010812E10F014B074B51070803E3CD
:100F3000010E4B5D02E2070E4B6F4BCFE6FF030E37
:100F4000E66EF6EC18F0E552E55215EC15F00108E6
:100F500004E10F01670E556F596B0DEC15F0010898
:100F600004E10F01556B2FEC10F005EC15F00108B2
:100F700001E00AD1B5D05929106E140E116E0E6E13
:100F800010C009F0BAEC1BF005C059FF050E0F01A7
:100F9000055C0EE2240EE66E340EE66E040EE66E7E
:100FA000010EE66EA4EC12F0E552E552E552E55270
:100FB00025EC15F001080FE10F014C2B4C511F08D7
:100FC00002E2010E4C6F4CCFE6FF040EE66EF6EC2B
:100FD00018F0E552E55247EC15F0010812E10F0157
:100FE0004C074C511F0803E3010E4C5D02E21F0E3B
:100FF0004C6F4CCFE6FF040EE66EF6EC18F0E552AF
:10100000E55215EC15F0010804E10F01680E556F6B
:10101000596B1DEC15F0010804E10F01556B2FEC25
:1010200010F005EC15F0010801E0AED059D05929B7
:10103000106E140E116E0E6E10C009F0BAEC1BF09B
:1010400005C059FF050E0F01055C0DE2200EE66E8E
:10105000340EE66EE66A010EE66EA4EC12F0E5527E
:10106000E552E552E55225EC15F001080FE10F01BC
:101070004D2B4D510C0802E2010E4D6F4DCFE6FF96
:10108000050EE66EF6EC18F0E552E55247EC15F069
:10109000010812E10F014D074D510C0803E3010E49
:1010A0004D5D02E20C0E4D6F4DCFE6FF050EE66E74
:1010B000F6EC18F0E552E55215EC15F0010804E1E4
:1010C0000F01690E556F596B1DEC15F0010804E115
:1010D0000F01556B2FEC10F005EC15F0010854E1F1
:1010E0000F01010E556F12005929106E140E116E6A
:1010F0000E6E10C009F0BAEC1BF005C059FF050ECA
:101100000F01055C0EE21B0EE66E340EE66E070E56
:10111000E66E010EE66EA4EC12F0E552E552E552E1
:10112000E55225EC15F001080AE10F014E2B4ECFD8
:10113000E6FF060EE66EF6EC18F0E552E55247ECD7
:1011400015F001080AE10F014E074ECFE6FF060E2B
:10115000E66EF6EC18F0E552E55215EC15F00108D4
:1011600004E10F01640E556F596B1DEC15F0010879
:1011700004E10F01556B2FEC10F005EC15F00108A0
:1011800003E10F01010E556F12000F0155516C0A5A
:1011900001E1BFD0070A5FE0010A01E0120047DC6D
:1011A0000F015929106E140E116E0E6E10C009F049
:1011B000BAEC1BF005C059FF050E0F01055C0EE2ED
:1011C000240EE66E340EE66E030EE66E010EE66E3B
:1011D000A4EC12F0E552E552E552E55225EC15F08B
:1011E000010814E10F015629106E180E116E0E6ED3
:1011F00010C009F0BAEC1BF005C056FF05C0E6FFB1
:10120000100EE66EF6EC18F0E552E55247EC15F0DC
:1012100001080FE10F0156075651170802E2170E99
:10122000566F56CFE6FF100EE66EF6EC18F0E5525C
:10123000E55215EC15F0010803E10F016B0EB4D077
:101240001DEC15F0010801E1B6D005EC15F0010820
:1012500001E0BCD05AD017EC05F00F015929106EEF
:10126000140E116E0E6E10C009F0BAEC1BF005C022
:1012700059FF050E0F01055C0EE2240EE66E340EDA
:10128000E66E060EE66E010EE66EA4EC12F0E55276
:10129000E552E552E55225EC15F0010814E10F0185
:1012A0005729106E3C0E116E0E6E10C009F0BAEC8C
:1012B0001BF005C057FF05C0E6FF110EE66EF6EC09
:1012C00018F0E552E55247EC15F001080FE10F0167
:1012D000570757513B0802E23B0E576F57CFE6FFC7
:1012E000110EE66EF6EC18F0E552E55215EC15F02D
:1012F000010803E10F016C0E57D01DEC15F0010839
:101300005AE005EC15F0010861E10F01010E556F7F
:10131000120017EC05F00F015929106E140E116E12
:101320000E6E10C009F0BAEC1BF005C059FF050E97
:101330000F01055C0EE2200EE66E340EE66E0B0E1B
:10134000E66E010EE66EA4EC12F0E552E552E552AF
:10135000E55225EC15F001080EE10F01582B58510C
:10136000010801E2586B58CFE6FF120EE66EF6EC6C
:1013700018F0E552E55247EC15F001080FE10F01B6
:1013800058075851010802E2010E586F58CFE6FF86
:10139000120EE66EF6EC18F0E552E55215EC15F07B
:1013A000010805E10F016A0E556F596B12001DEC23
:1013B00015F0010804E10F01556B2FEF10F005EC5B
:1013C00015F0010803E10F01010E556F12000F0126
:1013D0004851565D30E14951575D2DE158052BE1EB
:1013E000555129E12FEC10F0110EE66E340EE66E29
:1013F000E66AE66AA4EC12F0E552E552E552E552DF
:10140000110EE66E340EE66EE66A010EE66EA4EC90
:1014100012F0E552E552E552E55215EC15F00108DF
:1014200004E00F015729495D06E10F01586B2FECCD
:1014300010F00F01556B12000F0155516F0A01E1B9
:1014400059D1010A01E111D1030A01E1C9D06F0AA2
:1014500001E012005B0537E12FEC10F0030EE66EA1
:10146000340EE66EE66AE66AA4EC12F0E552E55246
:10147000E552E552430EE66E340EE66E0F0EE66E52
:10148000E66AA4EC12F0E552E552E552E552F80E98
:10149000E66E330EE66EE66A010EE66EA4EC12F01E
:1014A000E552E552E552E55247EC15F0010803E13B
:1014B0000F01020E5B6F25EC15F0010801E077D0FB
:1014C0000F01030E73D0020E5B5D37E12FEC10F0BD
:1014D000030EE66E340EE66EE66AE66AA4EC12F0DF
:1014E000E552E552E552E552F80EE66E330EE66E31
:1014F000E66A010EE66EA4EC12F0E552E552E55202
:10150000E552430EE66E340EE66E0F0EE66E010EE9
:10151000E66EA4EC12F0E552E552E552E55247ECD6
:1015200015F0010803E10F01030E5B6F25EC15F0C8
:1015300001083DE10F01010E39D0030E5B5D37E17B
:101540002FEC10F0F80EE66E330EE66EE66AE66AF1
:10155000A4EC12F0E552E552E552E552EC0EE66ECF
:10156000330EE66EE66A010EE66EA4EC12F0E5526A
:10157000E552E552E552430EE66E340EE66E0F0E6E
:10158000E66E010EE66EA4EC12F0E552E552E5526D
:10159000E55247EC15F0010803E10F01010E5B6F06
:1015A00025EC15F0010803E10F01020E5B6F05EC5D
:1015B00015F0010803E10F01010E9AD01DEC15F0A2
:1015C000010801E0DBD00F015B0502E16D0E90D058
:1015D000020E5B5D48E0030E5B5D01E0CFD087D07B
:1015E0002FEC10F00C0E0F01485D4F6F49CF50FFEC
:1015F0004ACF51FF4CCF52FF4DCF53FF4ECF54FF38
:10160000E850170810E2180E4F5D4F6F522B5251E1
:101610001F0803E2532B010E526F53510C0803E2D3
:10162000542B010E536F89EC03F01DEC15F00108EB
:1016300002E10F01556B05EC15F0010803E10F0104
:10164000020E556F25EC15F0010805E10F01030EA0
:101650005B6F6F0E556F47EC15F0010801E08ED0FF
:101660000F01020E5B6F6E0E43D02FEC10F0060ED2
:101670000F01485D4F6F49CF50FF4ACF51FF4CCF0C
:1016800052FF4DCF53FF4ECF54FFE850170810E2E2
:10169000180E4F5D4F6F522B52511F0803E2532B10
:1016A000010E526F53510C0803E2542B010E536F7D
:1016B00089EC03F01DEC15F0010802E10F01556BF8
:1016C00005EC15F0010803E10F01020E556F25EC42
:1016D00015F0010805E10F01010E5B6F6D0E556FEE
:1016E00047EC15F001084AE10F01030E5B6F6F0E26
:1016F000556F12002FEC10F0070E0F01485D4F6F71
:1017000049CF50FF4ACF51FF4CCF52FF4DCF53FF2F
:101710004ECF54FFE850170810E2180E4F5D4F6F80
:10172000522B52511F0803E2532B010E526F53519B
:101730000C0803E2542B010E536F89EC03F01DECEF
:1017400015F0010802E10F01556B05EC15F00108D9
:1017500003E10F01020E556F25EC15F0010805E1BC
:101760000F01020E5B6F6E0E556F47EC15F001080E
:0E17700005E10F01010E5B6F6D0E556F12004B
:02177E00D9CFC1
:10178000E6FFE1CFD9FF040EE126DE6ADD6ADECF97
:1017900010F0DDCF11F0126A136A11AE02D0126898
:1017A0001368D950FB0FE96EFF0EDA20EA6EEE5097
:1017B000105CEE501158EE501258EE5013581DE2C6
:1017C000020EDB6A030EDB6A020EDBCF10F0030EA3
:1017D000DBCF11F0D890115004E6050E105C000E1E
:1017E000115806E2020EDB2A030EEEE3DB2AECD7E9
:1017F000DF2A010ECCE3DB2ACAD7040EE15C02E249
:10180000E16AE552E16EE552E7CFD9FF1200D9CF88
:10181000E6FFE1CFD9FF040EE126DE6ADD6ADECF06
:1018200010F0DDCF11F0126A136A11AE02D0126807
:101830001368D950FB0FE96EFF0EDA20EA6EEE5006
:10184000105CEE501158EE501258EE5013581DE235
:10185000020EDB6A030EDB6A020EDBCF10F0030E12
:10186000DBCF11F0D890115004E6EE0E105C000EA4
:10187000115806E2020EDB2A030EEEE3DB2AECD758
:10188000DF2A010ECCE3DB2ACAD7040EE15C02E2B8
:10189000E16AE552E16EE552E7CFD9FF1200D9CFF8
:1018A000E6FFE1CFD9FF0F0E8116FE0EDB50F00BE5
:1018B00081128186010EE66EE66AE66AE66AA7DFB5
:1018C000E552E552E552E5528196010EE66EE66A72
:1018D000E66AE66A9CDFE552E552E552E5520F0EF4
:1018E0008116FE0EDB38F00B81128186010EE66E4A
:1018F000E66AE66AE66A8BDFE552E552E552E552B2
:101900008196010EE66EE66AE66AE66A80DFE552D7
:10191000E552E552E552E552E7CFD9FF1200D9CFA3
:10192000E6FFE1CFD9FFE652190EE66EE66AE66AF7
:10193000E66A6DDFE552E552E552E5520F0E81167B
:10194000F80E81160F0E8116300E81128186010E5F
:10195000E66EE66AE66AE66A5ADFE552E552E55265
:10196000E5528196010EE66EE66AE66AE66A4FDFA8
:10197000E552E552E552E5520F0E8116300E811206
:101980008186010EE66EE66AE66AE66A40DFE552A7
:10199000E552E552E5528196010EE66EE66AE66A88
:1019A000E66A35DFE552E552E552E5520F0E811643
:1019B000300E81128186010EE66EE66AE66AE66AFC
:1019C00026DFE552E552E552E5528196010EE66EBC
:1019D000E66AE66AE66A1BDFE552E552E552E55241
:1019E0000F0E8116818A8186010EE66EE66AE66A2E
:1019F000E66A0DDFE552E552E552E5528196010EA9
:101A0000E66EE66AE66AE66A02DFE552E552E5520C
:101A1000E552280EE66E43DFE5520C0EE66E3FDF20
:101A2000E552E552E552E7CFD9FF1200D9CFE6FFE4
:101A3000E1CFD9FF020EE126DF6A010EDB6A819455
:101A40000F0EE66EE66AE66AE66A99DEE552E55250
:101A5000E552E5520F0E81128186E66EE66AE66A6D
:101A6000E66A8DDEE552E552E552E5520F0E81142D
:101A7000E76E010EE7CFDBFF81960F0EE66EE66A9A
:101A8000E66AE66A7CDEE552E552E552E5520F0E63
:101A900081128186E66EE66AE66AE66A70DEE552E3
:101AA000E552E552E5520F0E8114DF6E010EDB5058
:101AB000DF128196010EE66EE66AE66AE66A5FDE8E
:101AC000E552E552E552E552DF50106E020EE15C40
:101AD00002E2E16AE552E16E1050E552E7CFD9FF2C
:101AE0001200D9CFE6FFE1CFD9FFE652DF6A9EDFD1
:101AF000DF6EDFBEFCD7DF50E552E552E7CFD9FFFE
:101B00001200D9CFE6FFE1CFD9FF0F0E8116FE0EEE
:101B1000DB5081128186050EE66EE66AE66AE66AA9
:101B20002EDEE552E552E552E5528196050EE66E4F
:101B3000E66AE66AE66A23DEE552E552E552E552D8
:101B4000E552E7CFD9FF1200D9CFE6FFE1CFD9FFA9
:101B50008194050EE66EE66AE66AE66A10DEE552F4
:101B6000E552E552E552FE0EDBCFE6FFCADFE55255
:101B7000FE0EDB38F00BE66EC4DFE552E552E7CF30
:101B8000D9FF1200D9CFE6FFE1CFD9FF8184050E3E
:101B9000E66EE66AE66AE66AF2DDE552E552E5528D
:101BA000E552FE0EDBCFE6FFACDFE552FE0EDB3882
:101BB000F00BE66EA6DFE5528194E552E7CFD9FF40
:101BC0001200D9CFE6FFE1CFD9FFFE0EDBCFE6FF53
:101BD000D9DFE552E552E7CFD9FF1200D9CFE6FFB2
:101BE000E1CFD9FFFE0EDBCFE6FFCCDFE552E552B9
:101BF000E7CFD9FF1200D9CFE6FFE1CFD9FFFD0E25
:101C0000DBCFF6FFFE0EDBCFF7FF0800F5500FE04D
:101C1000FD0EDBCFF6FFDB2AFE0EDBCFF7FF01E385
:101C2000DB2A0800F550E66ED9DFE552E8D7E55229
:101C3000E7CFD9FF1200D9CFE6FFE1CFD9FFE652B7
:101C4000FD0EDB500F0B106EFE0EDB50010B400D36
:101C5000F3501024DF6E7F0EDF14800FDF6EDFCFB6
:101C6000E6FF72DFE552E552E552E7CFD9FF1200F9
:101C7000010EE66E69DFE552E66AE66ADCDFE552F0
:101C8000E5521200D9CFE6FFE1CFD9FF050EE126DC
:101C9000010EF36EDB6E020EDB6A030EDB6A040ECE
:101CA000DB6ADF6ADFCF10F0116A10BE1168FB0E2D
:101CB000DBCF12F0FC0EDBCF13F011501318E8AE9F
:101CC00002D0133404D01250105C135011582DE27E
:101CD000FD0EDBCF10F0FE0EDBCF11F0126A136A9F
:101CE00011AE02D012681368D950010FE96EDACF35
:101CF000EAFF10C00BF011C00CF012C00DF013C0C1
:101D00000EF0EECF06F0EECF07F0EECF08F0EFCFFB
:101D100009F00DEC1BF005C0EDFF04C0EDFF03C0A2
:101D2000EDFF02C0EFFFDF2ABDD7010EDBCF10F0C1
:101D3000020EDBCF11F0030EDBCF12F0040EDBCF6F
:101D400013F010C006F011C007F012C008F013C065
:101D500009F0050EE15C02E2E16AE552E16EE5524E
:101D6000E7CFD9FF1200D9CFE6FFE1CFD9FF020EAE
:101D7000E126DF6AFB0EDBCF10F0FC0EDBCF11F0AB
:101D8000FD0EDBCF12F0FE0EDBCF13F01050111062
:101D90001210131005E1300EE66E20DFE552F4D08C
:101DA000D950FB0FE96EFF0EDA20EA6ED890030ED1
:101DB000EB50000A08E6000EEE5C000EEE58000E36
:101DC000EE58000EEE5815E22D0EE66E07DFE552D6
:101DD000D950FB0FE96EFF0EDA20EA6E000EEE6CB2
:101DE000EF1EEE22EF1EEE22EF1EEF22ED52ED521D
:101DF000ED52DE52070EDD6E010EDBCF10F0000E4D
:101E0000E76E1018E8AE02D0103403D0E750D88047
:101E1000105401E3B9D0010EDB04146E156A14BE30
:101E2000156814C0E6FF15C0E6FF0A0EE66EE66A06
:101E300029DFE552E552E552E55206C010F007C031
:101E400011F008C012F009C013F006C00BF007C073
:101E50000CF008C00DF009C00EF0FB0EDBCF06F051
:101E6000FC0EDBCF07F0FD0EDBCF08F0FE0EDBCF64
:101E700009F045EC1BF0065007100810091041E06E
:101E8000010EDF6EDB04186E196A18BE196818C0DF
:101E9000E6FF19C0E6FF0A0EE66EE66AF3DEE552DB
:101EA000E552E552E55206C014F007C015F008C02F
:101EB00016F009C017F006C00BF007C00CF008C000
:101EC0000DF009C00EF0FB0EDBCF06F0FC0EDBCFF1
:101ED00007F0FD0EDBCF08F0FE0EDBCF09F045EC7E
:101EE0001BF006C010F007C011F008C012F009C0C6
:101EF00013F0300E1026000E112212221322105061
:101F000003D0DF5004E0300EE66E68DEE552010ECD
:101F1000DB04146E156A14BE156814C0E6FF15C004
:101F2000E6FF0A0EE66EE66AADDEE552E552E552E0
:101F3000E55206C010F007C011F008C012F009C049
:101F400013F0D950FB0FE96EFF0EDA20EA6E06C0DF
:101F50000BF007C00CF008C00DF009C00EF0EECF7A
:101F600006F0EECF07F0EECF08F0EFCF09F045EC2A
:101F70001BF005C0EDFF04C0EDFF03C0EDFF02C084
:101F8000EFFF010EDB0638D7020EE15C02E2E16AE8
:101F9000E552E16EE552E7CFD9FF1200D9CFE6FF57
:101FA000E1CFD9FFFD0EDBCFE6FFFE0EDBCFE6FF74
:101FB00042DEE552E552D950F90FE96EFF0EDA2004
:101FC000EA6EEECFE6FFEECFE6FFEECFE6FFEFCF15
:101FD000E6FFC9DEE552E552E552E552E552E7CFAC
:101FE000D9FF1200D9CFE6FFE1CFD9FFFD0EDBCF3D
:101FF000E6FFFE0EDBCFE6FF1EDEE552E552FB0EEE
:10200000DBCFE6FFFC0EDBCFE6FFF5DDE552E55268
:10201000E552E7CFD9FF1200D9CFE6FFE1CFD9FFD4
:10202000FCC010F0FDC011F0040ED890103611362F
:10203000E806FBE1C10E1026000E1122105000012F
:10204000FE25E96E1150FF21EA6EFE0EDBCFEFFF99
:10205000FE2B000EFF23E552E7CFD9FF1200D9CFA8
:10206000E6FFE1CFD9FFE652DF6ADFCF10F0100EB6
:10207000E76E1018E8AE02D0E73402D0E750105CEB
:1020800018E2DFCFE9FFEA6AE9BEEA68C10EE92695
:10209000000EEA22200EEF6EDFCFE9FFEA6AE9BE0A
:1020A000EA68D10EE926000EEA22200EEF6EDF2A42
:1020B000DCD7E552E552E7CFD9FF1200D9CFE6FFD2
:1020C000E1CFD9FFE6520001C051030A52E0010AF4
:1020D00036E0030A1AE0010A67E1E66AE66AABDD68
:1020E000E552E552DF6A080EDF5C0CE2DF50EA6A77
:1020F000C10FE96E000EEA22EF50E66E6FDDE55289
:10210000DF2AF1D70001010E32D0080EE66EE66A32
:1021100092DDE552E552DF6A080EDF5C0DE2080E43
:10212000DF24EA6AC10FE96E000EEA22EF50E66E84
:1021300055DDE552DF2AF0D70001020E18D0E66A1D
:10214000010EE66E78DDE552E552DF6A080EDF5CCF
:102150000CE2DF50EA6AD10FE96E000EEA22EF507E
:10216000E66E3CDDE552DF2AF1D70001030EC06FB9
:102170001CD0080EE66E010EE66E5DDDE552E552FE
:10218000DF6A080EDF5C0DE2080EDF24EA6AD10F79
:10219000E96E000EEA22EF50E66E20DDE552DF2AFE
:1021A000F0D70001C06B01D0C06BE552E552E7CF1C
:1021B000D9FF1200D9CFE6FFE1CFD9FFE6520001E7
:1021C000C051010A1BE0010A32E1E66AE66A33DD2A
:1021D000E552E552DF6A100EDF5C0CE2DF50EA6A7E
:1021E000C10FE96E000EEA22EF50E66EF7DCE55211
:1021F000DF2AF1D70001010EC06F1AD0E66A010E86
:10220000E66E19DDE552E552DF6A100EDF5C0CE286
:10221000DF50EA6AD10FE96E000EEA22EF50E66E57
:10222000DDDCE552DF2AF1D70001C06B01D0C06BC5
:10223000E552E552E7CFD9FF1200D9CFE6FFE1CF53
:10224000D9FFE652E66AE66AF6DCE552E552DF6A55
:10225000100EDF5C0CE2DF50EA6AC10FE96E000E7F
:10226000EA22EF50E66EBADCE552DF2AF1D7E66AE1
:10227000010EE66EE0DCE552E552DF6A100EDF5C2F
:102280000CE2DF50EA6AD10FE96E000EEA22EF504D
:10229000E66EA4DCE552DF2AF1D7E552E552E7CF3E
:1022A000D9FF1200D9CFE6FFE1CFD9FFFE0EDB50F8
:1022B000010B0001FC6FFD6BFD0EDB500F0BFE6F81
:1022C000FF6BFCC010F0FDC011F0040ED89010366A
:1022D0001136E806FBE1C10E1026000E1122105047
:1022E0000001FE25E96E1150FF21EA6EFC0EDBCFE6
:1022F000EFFFE552E7CFD9FF1200D9CFE6FFE1CFDC
:10230000D9FF020EE126DF6AFE0EDB50010B000151
:10231000FC6FFD6BFD0EDB500F0BFE6FFF6BF90EBC
:10232000DBCF10F0FA0EDBCF11F0FB0EDBCF12F09B
:10233000FC0EDBCF13F0105011101210131005E13A
:10234000300EE66E69DEE552F5D0D950F90FE96E30
:10235000FF0EDA20EA6ED890030EEB50000A08E672
:10236000000EEE5C000EEE58000EEE58000EEE5819
:1023700015E22D0EE66E50DEE552D950F90FE96EEA
:10238000FF0EDA20EA6E000EEE6CEF1EEE22EF1E5C
:10239000EE22EF1EEF22ED52ED52ED52DE52070E0D
:1023A000DD6E010EDBCF10F0000EE76E1018E8AE08
:1023B00002D0103403D0E750D880105401E3BAD0D3
:1023C000010EDB04146E156A14BE156814C0E6FF16
:1023D00015C0E6FF0A0EE66EE66A54DCE552E552E9
:1023E000E552E55206C010F007C011F008C012F027
:1023F00009C013F006C00BF007C00CF008C00DF0C8
:1024000009C00EF0F90EDBCF06F0FA0EDBCF07F0B5
:10241000FB0EDBCF08F0FC0EDBCF09F045EC1BF028
:10242000065007100810091041E0010EDF6EDB04B2
:10243000186E196A18BE196818C0E6FF19C0E6FFC1
:102440000A0EE66EE66A1EDCE552E552E552E552FA
:1024500006C014F007C015F008C016F009C017F048
:1024600006C00BF007C00CF008C00DF009C00EF05C
:10247000F90EDBCF06F0FA0EDBCF07F0FB0EDBCF59
:1024800008F0FC0EDBCF09F045EC1BF006C010F0A5
:1024900007C011F008C012F009C013F0300E10266A
:1024A000000E112212221322105003D0DF5004E03C
:1024B000300EE66EB1DDE552010EDB04146E156AD6
:1024C00014BE156814C0E6FF15C0E6FF0A0EE66EDE
:1024D000E66A42EC0EF0E552E552E552E55206C0DE
:1024E00010F007C011F008C012F009C013F0D95065
:1024F000F90FE96EFF0EDA20EA6E06C00BF007C096
:102500000CF008C00DF009C00EF0EECF06F0EECFD3
:1025100007F0EECF08F0EFCF09F045EC1BF005C057
:10252000EDFF04C0EDFF03C0EDFF02C0EFFF010EA1
:10253000DB0637D7020EE15C02E2E16AE552E16EAA
:10254000E552E7CFD9FF1200D9CFE6FFE1CFD9FF9F
:10255000FE0EDB50010B0001FC6FFD6BFD0EDB502E
:102560000F0BFE6FFF6BFB0EDBCFF6FFFC0EDBCF1E
:10257000F7FF0800F5500FE0FB0EDBCFF6FFDB2A7C
:10258000FC0EDBCFF7FF01E3DB2A0800F550E66E17
:0E25900043DDE552E8D7E552E7CFD9FF120050
:02259E000F0E1E
:1025A000946E82681200070E9410946EDF0E9414DD
:1025B000946E82681200D9CFE6FFE1CFD9FF040EF6
:1025C000E126DE6ADD6ADECF10F0DDCF11F0D890B3
:1025D000115004E6040E105C000E115801E390D077
:1025E000DECFE9FFDDCFEAFF200EE9260F0EEA225B
:1025F000EF1C826E020EDB6A030EDB6A020EDBCF7B
:1026000010F0030EDBCF11F0D890115004E6040E49
:10261000105C000E11586EE2020EDBCFE9FF030ED4
:10262000DBCFEAFF240EE9260F0EEA22EF508214D8
:102630003FE1DECF14F0DDCF15F0D890143615361B
:10264000D89014361536020EDB501424E96E030EB2
:10265000DB501520EA6ED890E936EA36000EE926FE
:102660000F0EEA22EECF12F0EFCF13F0010E12267A
:10267000000E1322DECF10F0DDCF11F0D89010360F
:102680001136D89010361136020EDB501024E96E48
:10269000030EDB501120EA6ED890E936EA36000EC0
:1026A000E9260F0EEA2212C0EEFF13C0EDFF1BD089
:1026B000DECF10F0DDCF11F0D89010361136D89063
:1026C00010361136020EDB501024E96E030EDB507B
:1026D0001120EA6ED890E936EA36000EE9260F0E90
:1026E000EA22EE6AED6A020EDB2A030E01E286D7C9
:1026F000DB2A84D7DF2A010E01E265D7DB2A63D704
:10270000040EE15C02E2E16AE552E16EE552E7CFD8
:10271000D9FF1200D9CFE6FFE1CFD9FF040EE126A1
:10272000DE6ADD6A020EDB6A030EDB6A010EDE6E14
:10273000DD6ADECFE9FFDDCFEAFF200EE9260F0ECE
:10274000EA22EF1C8214826E020EDB6A030EDB6A41
:10275000020EDBCF10F0030EDBCF11F0D89011503A
:1027600004E6030E105C000E11586EE2020EDBCF81
:10277000E9FF030EDBCFEAFF240EE9260F0EEA2263
:10278000EF5082143FE1DECF14F0DDCF15F0D8908A
:1027900014361536D89014361536020EDB50142434
:1027A000E96E030EDB501520EA6ED890E936EA3662
:1027B000000EE9260F0EEA22EECF12F0EFCF13F053
:1027C000010E1226000E1322DECF10F0DDCF11F025
:1027D000D89010361136D89010361136020EDB50D4
:1027E0001024E96E030EDB501120EA6ED890E93612
:1027F000EA36000EE9260F0EEA2212C0EEFF13C0E1
:10280000EDFF1BD0DECF10F0DDCF11F0D8901036E9
:102810001136D89010361136020EDB501024E96EB6
:10282000030EDB501120EA6ED890E936EA36000E2E
:10283000E9260F0EEA22EE6AED6A020EDB2A030E8B
:1028400001E286D7DB2A84D7040EE15C02E2E16A6A
:10285000E552E16EE552E7CFD9FF1200D9CFE6FF8E
:10286000E1CFD9FF040EE126DE6ADD6ADECF10F08B
:10287000DDCF11F0FD0EDBCF12F0FE0EDBCF13F03B
:1028800011501318E8AE02D0133404D01250105C6B
:10289000135011581DE2020EDB6A030EDB6A020EB2
:1028A000DBCF10F0030EDBCF11F0D890115004E60F
:1028B000EE0E105C000E115806E2020EDB2A030E2B
:1028C000EEE3DB2AECD7DF2A010ED0E3DB2ACED7FA
:1028D000040EE15C02E2E16AE552E16EE552E7CF07
:1028E000D9FF1200D9CFE6FFE1CFD9FF040EE126D0
:1028F000DE6ADD6ADECF10F0DDCF11F0D890115026
:1029000004E6040E105C000E115875E2DECFE9FFFC
:10291000DDCFEAFF200EE9260F0EEA22EF1C826EC1
:10292000020EDB6A030EDB6A020EDBCF10F0030E31
:10293000DBCF11F0D890115004E6040E105C000EAD
:1029400011584AE2DECF10F0DDCF11F0D8901036EA
:102950001136D89010361136020EDB501024E96E75
:10296000030EDB501120EA6ED890E936EA36000EED
:10297000E9260F0EEA22EE6AED6A020EDBCFE9FFCE
:10298000030EDBCFEAFF240EE9260F0EEA22EF50FA
:1029900082141CE1DECF10F0DDCF11F0D89010369C
:1029A0001136D89010361136020EDB501024E96E25
:1029B000030EDB501120EA6ED890E936EA36000E9D
:1029C000E9260F0EEA22010EEE6EED6A020EDB2AF8
:1029D000030EAAE3DB2AA8D78250816EE80EE66ECA
:1029E000030EE66E3BDFE552E552DF2A010E01E2FF
:1029F00081D7DB2A7FD7040EE15C02E2E16AE5526F
:102A0000E16EE552E7CFD9FF12000F01010E081960
:102A100003E1095101E1010C000C0F010A0E081934
:102A200003E1095101E1010C000C0F01010E101925
:102A300003E1115101E1010C000C0F010A0E101904
:102A400003E1115101E1010C000C0F01010E0A1903
:102A500001E10B511AE00A0ED8800A55000E0B5501
:102A600015E20ACF10F00BCF11F0030E0D6E0E6AB7
:102A70000ACF08F00BCF09F086EC1BF005C011F06F
:102A8000010E041803E1115001E1010C000C0F01CB
:102A9000010E121901E113511AE00A0ED8801255E5
:102AA000000E135515E212CF10F013CF11F0030EE4
:102AB0000D6E0E6A12CF08F013CF09F086EC1BF0F2
:102AC00005C011F0010E041803E1115001E1010CE1
:022AD000000CF8
:0E2AD200D9CFE6FFE1CFD9FFD59EFD0EDBCFB9
:102AE00028FFFE0EDBCF29FFD59C13681468156AFA
:102AF00028CF16F029CF17F0186A1650135C106E05
:102B000017501458116E18501558126E0C6A010E99
:102B10000D6E0E6A10C007F011C008F012C009F067
:102B200091EC1AF00350D66E13681468156A28CF1A
:102B300016F029CF17F0186A1650135C106E175054
:102B40001458116E18501558126E0C6A010E0D6E45
:102B50000E6A10C007F011C008F012C009F091EC25
:102B60001AF007C010F008C011F009C012F00750A9
:102B7000D76ED59AD586F28AF294F184D58EE55235
:102B8000E7CFD9FF1200D59E120013681468156AAA
:102B900028CF16F029CF17F0186A1650135C106E64
:102BA00017501458116E18501558126E0C6A010EF9
:102BB0000D6E0E6A10C007F011C008F012C009F0C7
:102BC00091EC1AF00350D66E13681468156A28CF7A
:102BD00016F029CF17F0186A1650135C106E1750B4
:102BE0001458116E18501558126E0C6A010E0D6EA5
:102BF0000E6A10C007F011C008F012C009F091EC85
:102C00001AF007C010F008C011F009C012F0075008
:102C1000D76ED58E1200D9CFE6FFE1CFD9FFCD9088
:102C2000FD0EDBCF2AFFFE0EDBCF2BFF13681468EF
:102C3000156A2ACF16F02BCF17F0186A1650135CBE
:102C4000106E17501458116E18501558126E0C6AE9
:102C5000010E0D6E0E6A10C007F011C008F012C010
:102C600009F091EC1AF00750CF6E13681468156ADA
:102C70002ACF16F02BCF17F0186A1650135C106E7F
:102C800017501458116E18501558126E0C6A010E18
:102C90000D6E0E6A10C007F011C008F012C009F0E6
:102CA00091EC1AF003C010F004C011F005C012F04E
:102CB0000350CE6E9D809E909F90CD8ECD8CCD98F2
:102CC000CD9ACD96CD92CD80E552E7CFD9FF1200B7
:102CD00013681468156A2ACF16F02BCF17F0186AFC
:102CE0001650135C106E17501458116E185015586A
:102CF000126E0C6A010E0D6E0E6A10C007F011C044
:102D000008F012C009F091EC1AF00750CF6E13686A
:102D10001468156A2ACF16F02BCF17F0186A1650D0
:102D2000135C106E17501458116E18501558126E0F
:102D30000C6A010E0D6E0E6A10C007F011C008F08B
:102D400012C009F091EC1AF003C010F004C011F0A9
:102D500005C012F00350CE6ECD801200CD9012004F
:102D6000D9CFE6FFE1CFD9FFCA94CC6AFE0EDB5083
:102D70000F012C6F2D6BCB6E9D829E929F92CA90FD
:102D8000CA92CA84E552E7CFD9FF12002CCFCBFFFD
:102D9000CA841200CA941200D9CFE6FFE1CFD9FF4E
:102DA000B190FD0EDBCF2EFFFE0EDBCF2FFF1368A1
:102DB0001468156A2ECF16F02FCF17F0186A165028
:102DC000135C106E17501458116E18501558126E6F
:102DD0000C6A010E0D6E0E6A10C007F011C008F0EB
:102DE00012C009F091EC1AF00750B36E1368146822
:102DF000156A2ECF16F02FCF17F0186A1650135CF5
:102E0000106E17501458116E18501558126E0C6A27
:102E1000010E0D6E0E6A10C007F011C008F012C04E
:102E200009F091EC1AF003C010F004C011F005C0D5
:102E300012F00350B26EA082A192A292B18EB1980C
:102E4000B19AB192B180E552E7CFD9FF1200136871
:102E50001468156A2ECF16F02FCF17F0186A165087
:102E6000135C106E17501458116E18501558126ECE
:102E70000C6A010E0D6E0E6A10C007F011C008F04A
:102E800012C009F091EC1AF00350B26E1368146886
:102E9000156A2ECF16F02FCF17F0186A1650135C54
:102EA000106E17501458116E18501558126E0C6A87
:102EB000010E0D6E0E6A10C007F011C008F012C0AE
:102EC00009F091EC1AF007C010F008C011F009C029
:102ED00012F00750B36EB1801200B19012000F01D2
:102EE000382B000E39234051385D4151395904E3E4
:102EF000386B396B010E306F12000F013A2B000E48
:102F00003B2342513A5D43513B5904E33A6B3B6BDF
:102F1000010E316F12000F013C2B000E3D23445176
:102F20003C5D45513D5904E33C6B3D6B010E326FF6
:102F300012000F013E2B000E3F2346513E5D4751CC
:102F40003F5904E33E6B3F6B010E336F1200D9CF44
:102F5000E6FFE1CFD9FFFD0EDBCF40FFFE0EDBCF5A
:102F600041FF0F01386B396B306BE552E7CFD9FF6A
:102F70001200D9CFE6FFE1CFD9FFFD0EDBCF42FF34
:102F8000FE0EDBCF43FF050E0D6E0E6A42CF08F03A
:102F900043CF09F06BEC1AF008C042FF09C043FFB1
:102FA0000F013A6B3B6B316BE552E7CFD9FF120053
:102FB000D9CFE6FFE1CFD9FFFD0EDBCF46FFFE0EF6
:102FC000DBCF47FF0A0E0D6E0E6A46CF08F047CFE3
:102FD00009F06BEC1AF008C046FF09C047FF0F016B
:0E2FE0003E6B3F6B336BE552E7CFD9FF12001B
:022FEE00D9CF39
:102FF000E6FFE1CFD9FF020EE126FE0EDB500F0BFC
:10300000DF6EFE0EDB380F0B0A0D010EF3CFDBFF78
:10301000DB50DF24106E020EE15C02E2E16AE55251
:10302000E16E1050E552E7CFD9FF1200D9CFE6FF8D
:10303000E1CFD9FF020EE1260A0E106E0E6EFE0ED3
:10304000DBCF09F0BAEC1BF00550DF6E0A0E106EF4
:103050000E6EFE0EDBCF09F0BAEC1BF00950100D1E
:10306000010EF3CFDBFFDB50DF24106E020EE15CBC
:1030700002E2E16AE552E16E1050E552E7CFD9FF76
:10308000120094869488C79EC79CC690C692C69428
:10309000C686310EC86EC68A1200D9CFE6FFE1CFD0
:1030A000D9FF9E96FE0EDB50D00FC96E9EA6FED7AE
:1030B000E552E7CFD9FF12009E96C5809EA6FED7A7
:1030C00012009E96C5849EA6FED71200D9CFE6FFB9
:1030D000E1CFD9FF9E96FE0EDB50C96E9EA6FED7AD
:1030E000E552E7CFD9FF12009E96C5869EA6FED771
:1030F000C95012009E96C59AC5889EA6FED712009A
:103100009E96C58AC5889EA6FED71200D9CFE6FF37
:10311000E1CFD9FFD1DFE66AC0DFE5520F01010E32
:103120006B6FE85004E0C550400BFAE0F8D7FE0E94
:10313000DBCFE6FFCBDFE5520F01010E6B6FE850EE
:1031400004E0C550400BFAE0F8D7FD0EDBCFE6FFF8
:103150006DDFE552E66EBADFE5520F01010E6B6FCF
:10316000E85004E0C550400BFAE0F8D7AADFE5527A
:10317000E7CFD9FF1200D9CFE6FFE1CFD9FFE65262
:103180009BDFE66A8ADFE5520F01010E6B6FE850A4
:1031900004E0C550400BFAE0F8D7FE0EDBCFE6FFA7
:1031A00095DFE5520F01010E6B6FE85004E0C5504A
:1031B000400BFAE0F8D780DF010EE66E6EDFE552D5
:1031C0000F01010E6B6FE85004E0C550400BFAE0B0
:1031D000F8D78ADFDF6EDFCFE6FF09DFE552DF6E6B
:1031E000DF50E552E552E7CFD9FF1200D9CFE6FF15
:1031F000E1CFD9FFFD0EDBCFE6FFFE0EDBCFE6FF12
:1032000085DFE552E552E552E7CFD9FF1200D9CF6D
:10321000E6FFE1CFD9FFFE0EDBCFE6FFACDFE552E4
:08322000E552E7CFD9FF1200CF
:08322800F28ED08EF28C120030
:10323000F19CF292F2881200D8CFE4FFE0CFE4FFD5
:10324000E46EDACFE4FFE2CFDAFFE9CFE4FFEACFC2
:10325000E4FFF6CFE4FFF7CFE4FFF5CFE4FFF3CFD1
:10326000E4FFF4CFE4FFFACFE4FF00EE00F0100E2D
:10327000E80403E3EECFE4FFFBD700EE10F00A0E04
:10328000E80403E3EECFE4FFFBD7E652F2A407D055
:10329000C3EC15F0F294C5EC15F06FEC17F09EA09E
:1032A00007D0AEEC16F09E9068EC16F07DEC17F0AF
:1032B000A1A207D06DEC17F0A19227EC17F099ECC2
:1032C00017F0F2B2F2929EBA9E9AE55200EE19F011
:1032D0000A0EE80403E3E5CFEDFFFBD700EE0FF0A5
:1032E000100EE80403E3E5CFEDFFFBD7E5CFFAFFCF
:1032F000E5CFF4FFE5CFF3FFE5CFF5FFE5CFF7FF2F
:10330000E5CFF6FFE5CFEAFFE5CFE9FFE5CFDAFF4E
:10331000E550E5CFE0FFE5CFD8FF1000DACFE4FFBE
:10332000E2CFDAFFE9CFE4FFEACFE4FFF6CFE4FF34
:10333000F7CFE4FFF5CFE4FFF3CFE4FFF4CFE4FFF2
:10334000FACFE4FF00EE00F0100EE80403E3EECF46
:10335000E4FFFBD700EE10F00A0EE80403E3EECF23
:10336000E4FFFBD7E652F2A407D0C3EC15F0F294C9
:10337000C5EC15F06FEC17F09EA007D0AEEC16F080
:103380009E9068EC16F07DEC17F0A1A207D06DECD2
:1033900017F0A19227EC17F099EC17F0F2B2F29225
:1033A0009EBA9E9AE55200EE19F00A0EE80403E375
:1033B000E5CFEDFFFBD700EE0FF0100EE80403E3BE
:1033C000E5CFEDFFFBD7E5CFFAFFE5CFF4FFE5CF83
:1033D000F3FFE5CFF5FFE5CFF7FFE5CFF6FFE5CF4C
:0C33E000EAFFE5CFE9FFE5CFDAFF1100BE
:0433EC004C4F4E44B0
:1033F0004F4E2054494D45005041524953205449A5
:103400004D45004E455720594F524B2054494D458C
:103410000052454E472052454E47002020202000B4
:1034200020202000202000332E20576F726C642053
:10343000436C6F636B00322E2053657420416C61C6
:10344000726D003C00312E2053657420436C6F6315
:103450006B00414C41524D20434C4F434B004C4F6D
:103460004E444F4E005041524953004E4557594F1C
:10347000524B004F4E004F4646003A003000444544
:1034800043004E4F56004F435400534550004155A2
:1034900047004A554C004A554E004D415900415095
:1034A00052004D415200464542004A414E005341B0
:1034B000540046524900544855005745440054555D
:1034C00045004D4F4E0053554E00534D4152542030
:0634D000434C4F434B008A
:0A34D600006A0EAE74EF1AF00D6CE0
:1034E0000E1EE86A0E22001E09AE7CEF1AF0086C70
:1034F000091EE86A0922001E86EC1BF009BE8CEF4B
:103500001AF000AE000C086C091EE86A0922046C6F
:10351000051EE86A0522000C00BE83EF1AF0018840
:10352000FF0C006A0EAE9CEF1AF00C6C0D1E0E1E06
:10353000E86A0D220E22001E09AEA6EF1AF0076CF3
:10354000081E091EE86A08220922001E69EC1BF009
:1035500009BEB9EF1AF000AE000C076C081E091E78
:10356000E86A08220922036C041E051E04220522B3
:0C357000000C00BEADEF1AF00188FF0C4B
:04357C001E0EF66EBB
:10358000000EF76E000EF86E0F010900F550626F25
:103590000900F550636F03E1626701D03DD0090077
:1035A000F5505D6F0900F5505E6F0900F5505F6FD3
:1035B00009000900F550E96E0900F550EA6E0900AE
:1035C00009000900F550606F0900F550616F0900AE
:1035D0000900F6CF64FFF7CF65FFF8CF66FF5DCF38
:1035E000F6FF5ECFF7FF5FCFF8FF0F01605302E1F8
:1035F000615307E00900F550EE6E6007F8E26107DD
:10360000F9D764CFF6FF65CFF7FF66CFF8FF0F015C
:0A3610006207000E635BBFD71200D3
:06361A0006500B02F3CF85
:1036200002F0F4CF03F00C02F3500326000EF42056
:10363000046E06500D02F3500426000EF420056EB1
:1036400006500E02F350052607500B02F3500326D6
:10365000F4500422000E052207500C02F3500426F9
:10366000F450052207500D02F350052608500B02B6
:10367000F3500426F450052208500C02F35005269E
:0A36800009500B02F350052612005A
:06368A00056A046A036AF0
:10369000026A200EE76ED8900636073608360936DD
:1036A00002360336043605360B50025C0C500358C4
:1036B0000D5004580E50055809E30B50025E0C5093
:1036C000035A0D50045A0E50055A062AE72EE4D725
:0236D0001200E6
:0E36D200056A046A036A180EE76ED890073680
:1036E000083609360336043605360C50035C0D5097
:1036F00004580E50055807E30C50035E0D50045A51
:0C3700000E50055A072AE72EEAD71200E7
:04370C00056A046ADC
:10371000100EE76ED89008360936043605360D507F
:10372000045C0E50055805E30D50045E0E50055A1A
:08373000082AE72EF0D7120071
:08373800800EF36E00EE00F0BC
:103740000F0E01D81200EA6002D0EE6AFCD7F350E7
:08375000E9601200EE6AFCD7EB
:083758001EEE00F02EEE00F061
:10376000F86A019CBEEC1AF003EC00F034EC00F0B7
:04377000FBD7120071
:0C377400056A080EE76ED890093605368D
:103780000E50055C02E3056E092AE72EF7D71200FA
:103790000000000000000000000000000000000029
:1037A0000000000000000000010001000100010015
:1037B0000000000000000000000000000000000009
:0537C000010001010001
:0B37C5000000000000000000101010C9
:1037D000101010101018181818181818181C1C1C85
:1037E0001C1C1C1C1C1E1E1E1E1E1E1E1E1F1F1F00
:1037F0001F1F1F1F1F00000000000000000000002E
:1038000000000000000000000000000000000000B8
:1038100000000000000000000000000000000000A8
:06382000000000000000A2
:0A382600000000D000222222072536
:10383000091000010000000000000000000000006E
:013840000087
:0F38410000000000000000000000000000000078
:103850000000000000000000000000000000000068
:0938600000102040800102040860
:020000040030CA
:0100010002FC
:0100020003FA
:010003001EDE
:010005008179
:010006008178
:010008000FE8
:01000900C036
:01000A000FE6
:01000B00E014
:01000C000FE4
:01000D0040B2
:00000001FF
