:020000040000FA
:06000000C4EF25F0120020
:020006001200E6
:0600080038EF23F01200A6
:01000E0000F1
:01000F0000F0
:0400100000000000EC
:06001800BAEF22F0120015
:02001E000900D7
:100020009D4C00003501000029000000824C0000BA
:10003000E50000001B00000010000000940100001B
:1000400004000000214C0000000F000061000000CF
:10005000EC4B000000010000350000000F00000024
:100060009A01000001000000E04B00007E0100004A
:100070000C000000C04B00005E01000020000000EA
:0C0080000E0000009901000001000000CB
:04008C0066D8E80E3C
:10009000E66E030EE66E18D8E552E55201016905D9
:1000A000FDE1320EE66EE66AA8EC18F0E552E55284
:1000B00098D88BD986DB70EC05F085EC0DF0E9EC77
:1000C0001EF09AEC13F0EAD7D9CFE6FFE1CFD9FFC3
:1000D000040EE126DE6ADD6ADECF10F0DDCF11F01E
:1000E000FD0EDBCF12F0FE0EDBCF13F01150131814
:1000F000E8AE02D0133404D01250105C13501158E3
:100100001DE2020EDB6A030EDB6A020EDBCF10F08B
:10011000030EDBCF11F0D890115004E6EE0E105C08
:10012000000E115806E2020EDB2A030EEEE3DB2A74
:10013000ECD7DF2A010ED0E3DB2ACED7040EE15C38
:1001400002E2E16AE552E16EE552E7CFD9FF120023
:10015000956A836A936A816A120001011669010E29
:10016000176F460E2A6F0101836BF2DF54EC20F00B
:100170000A0EE66EE66AE66EE66A75EC1AF0E5527D
:10018000E552E552E5520A0EE66EE66AE66EE66A6A
:100190009EEC1AF0E552E552E552E552CAEC0FF03A
:1001A000E4EC1EF0B2EC22F00BEC1BF074EC11F05E
:1001B0006BEC13F0F40EE66E010EE66E85DFE55291
:1001C000E552660EE66EB70EE66E7DEC17F0E55270
:1001D000E552320EE66EE66AA8EC18F0E552E552FA
:1001E000120001011751500A01E1D6D0550A01E170
:1001F000B4D0010A01E189D0070A5EE0010A33E0C8
:10020000030A01E012002F050DE130050BE1310575
:1002100009E12F6B306B316B1DC119F11EC118F153
:100220001FC11AF132050DE133050BE1340509E177
:10023000326B336B346B20C119F121C118F122C12B
:100240001AF16BEC13F019C124F118C11BF119C19B
:100250001CF10101140E266F88EC20F0BFEC20F099
:100260000101020E97D01B51E66EE66AA3EC19F06D
:10027000E552E55201011C51E66EE66A0CEC1AF0FB
:10028000E552E55201012651000805E31B071C0752
:10029000140E266F240726072451000801E294D08B
:1002A000B4EC20F01AC124F101011951185D1B6F43
:1002B0001AC11CF1030E6ED01B51E66EE66AA3EC68
:1002C00019F0E552E55201011C51E66EE66A0CECAC
:1002D0001AF0E552E55201012651000805E31B071B
:1002E0001C07140E266F24072607245100086CE310
:1002F00019C124F19EEC20F0A9EC20F019C11BF1EA
:1003000018C11CF10101040E45D01B51E66EE66ACE
:10031000A3EC19F0E552E55201011C51E66EE66AC4
:100320000CEC1AF0E552E55201012651000805E3F4
:100330001B071C07140E266F2407260724510008EC
:1003400043E31AC124F193EC20F01AC11BF101011F
:100350001951185D1C6F050E1DD01B51E66EE66A23
:10036000A3EC19F0E552E55201011C51E66EE66A74
:100370000CEC1AF0E552E55201012651000805E3A4
:100380001B071C07140E266F24072607245100089C
:100390001BE3010E176F12002651000805E372ECF3
:1003A00020F00101140E266F2607640EE66EE66A41
:1003B000A3EC19F0E552E552640EE66EE66A0CEC29
:1003C0001AF0E552E55212001200010116510E0A10
:1003D00001E17ED1030A01E103D1010A01E187D0E5
:1003E000070A0EE0010A01E012006BEC13F00101B4
:1003F000060E176F0B0E166F88EC20F0BFEF20F083
:10040000060E176F570EE66E450EE66EE66AE66A52
:10041000EFEC15F0E552E552E552E552480EE66E76
:10042000450EE66EE66A010EE66EEFEC15F0E5525B
:10043000E552E552E552640EE66EE66AA3EC19F069
:10044000E552E552640EE66EE66A0CEC1AF0E552EF
:10045000E55201012551000803E3140E256F28071A
:1004600025072851000803E3010E176F1669010ED6
:10047000E66EE66A98EC1FF0E552E55201080EE1DF
:100480000101140E256F0E0E166F93EC20F0A9ECEF
:1004900020F06BEC13F00101140E286F020EE66ED3
:1004A000E66A98EC1FF0E552E55201080EE1010101
:1004B000140E256F0C0E166F88EC20F0B4EC20F0B3
:1004C0006BEC13F00101140E286F000EE66EE66A65
:1004D00098EC1FF0E552E552010801E071D10101ED
:1004E000010E2B6F6BEC13F00101320E67D1060E7B
:1004F000176F570EE66E450EE66EE66AE66AEFEC9B
:1005000015F0E552E552E552E552380EE66E450E1D
:10051000E66EE66A010EE66EEFEC15F0E552E55286
:10052000E552E552640EE66EE66AA3EC19F0E55278
:10053000E552640EE66EE66A0CEC1AF0E552E552FE
:1005400001012551000803E3140E256F2807250734
:100550002851000804E3020E176F246B1669010E80
:10056000E66EE66A98EC1FF0E552E55201080EE1EE
:100570000101140E256F0B0E166F88EC20F0BFECF6
:1005800020F06BEC13F00101140E286F020EE66EE2
:10059000E66A98EC1FF0E552E55201080EE1010110
:1005A000140E256F0D0E166F9EEC20F0A9EC20F0B6
:1005B0006BEC13F00101140E286F000EE66EE66A74
:1005C00098EC1FF0E552E552010801E0F9D0010175
:1005D000010E2B6F6BEC13F00101246B330EEED088
:1005E000060E176F290EE66E450EE66EE66AE66A9F
:1005F000EFEC15F0E552E552E552E5521C0EE66EC1
:10060000450EE66EE66A010EE66EEFEC15F0E55279
:10061000E552E552E552640EE66EE66AA3EC19F087
:10062000E552E552640EE66EE66A0CEC1AF0E5520D
:10063000E55201012551000803E3140E256F280738
:1006400025072851000804E3030E176F246B166971
:10065000010EE66EE66A98EC1FF0E552E5520108DD
:100660000EE10101140E256F0C0E166F88EC20F0C0
:10067000B4EC20F06BEC13F00101140E286F020EA5
:10068000E66EE66A98EC1FF0E552E55201080EE1CD
:100690000101140E256F0E0E166F93EC20F0A9ECDD
:1006A00020F06BEC13F00101140E286F000EE66EC3
:1006B000E66A98EC1FF0E552E552010801E080D0AF
:1006C0000101010E2B6F6BEC13F00101340E76D09B
:1006D000060E176F0C0EE66E450EE66EE66AE66ACB
:1006E000EFEC15F0E552E552E552E5521C0EE66ED0
:1006F000450EE66EE66A010EE66EEFEC15F0E55289
:10070000E552E552E552640EE66EE66AA3EC19F096
:10071000E552E552640EE66EE66A0CEC1AF0E5521C
:10072000E55201012551000803E3140E256F280747
:1007300025072851000804E3040E176F246B16697F
:10074000010EE66EE66A98EC1FF0E552E5520108EC
:100750000EE10101140E256F0D0E166F9EEC20F0B8
:10076000A9EC20F06BEC13F00101140E286F020EBF
:10077000E66EE66A98EC1FF0E552E55201080EE1DC
:100780000101140E256F0B0E166F88EC20F0BFECE4
:1007900020F06BEC13F00101140E286F000EE66ED2
:1007A000E66A98EC1FF0E552E552010809E1010103
:1007B000010E2B6F6BEC13F00101350E166F12005A
:1007C000120001011651170A01E10CD1010A01E1E1
:1007D0008CD0030A0DE0010A01E012006BEC13F06B
:1007E0000101140E286F150E166F18C129F11200A1
:1007F0006BEC13F0020EE66E450EE66EE66AE66AF4
:10080000EFEC15F0E552E552E552E55229C110F042
:10081000116A126A136A29C1E6FF11C0E6FF12C00D
:10082000E6FF13C0E6FF0A0EE66EE66AC8EC14F0B7
:10083000146E060EE15E1450F10EE66E440EE66E86
:10084000E66A010EE66EEFEC15F0E552E552E55270
:10085000E55201012551000803E3140E256F280716
:1008600025072851000801E31669C5EC1FF00108AF
:1008700009E10101140E286F292B2951630802E2B6
:10088000010E296FE7EC1FF0010809E10101140EC8
:10089000286F2907010E295D02E2630E296F030EFE
:1008A000E66EE66A98EC1FF0E552E55201080AE1AF
:1008B0000101140E286F460E2A6F6BEC13F0010134
:1008C000410E166F000EE66EE66A98EC1FF0E552D8
:1008D000E552010801E003D101012E6B140E286FCF
:1008E0006BEC13F001013C0EF8D06BEC13F0E50E4D
:1008F000E66E440EE66EE66AE66AEFEC15F0E55247
:10090000E552E552E55229C110F0116A126A136AE4
:1009100029C1E6FF11C0E6FF12C0E6FF13C0E6FFE3
:100920000C0EE66EE66AC8EC14F0146E060EE15E7C
:100930001450F10EE66E440EE66EE66A010EE66EA7
:10094000EFEC15F0E552E552E552E5520101255173
:10095000000803E3140E256F280725072851000817
:1009600001E31669C5EC1FF0010809E10101140E4D
:10097000286F292B2951630802E2010E296FE7EC49
:100980001FF0010809E10101140E286F2907010E6B
:10099000295D02E2630E296F030EE66EE66A98ECAB
:1009A0001FF0E552E55201080AE10101140E286F1B
:1009B000470E2A6F6BEC13F00101410E166F000E0B
:1009C000E66EE66A98EC1FF0E552E552010801E098
:1009D00086D001012E6B140E286F6BEC13F0010111
:1009E0003D0E7BD06BEC13F0D80EE66E440EE66E37
:1009F000E66AE66AEFEC15F0E552E552E552E5529B
:100A000029C110F0116A126A136A29C1E6FF11C0E8
:100A1000E6FF12C0E6FF13C0E6FF0D0EE66EE66AC3
:100A2000C8EC14F0146E060EE15E1450F10EE66E82
:100A3000440EE66EE66A010EE66EEFEC15F0E55246
:100A4000E552E552E55201012551000803E3140E79
:100A5000256F280725072851000801E31669C5EC12
:100A60001FF0010809E10101140E286F292B2951FB
:100A7000630802E2010E296FE7EC1FF0010809E1AB
:100A80000101140E286F2907010E295D02E2630E91
:100A9000296F030EE66EE66A98EC1FF0E552E55208
:100AA00001080AE10101140E286F480E2A6F6BEC51
:100AB00013F00101410E166F000EE66EE66A98EC27
:100AC0001FF0E552E55201080AE101012E6B140EF8
:100AD000286F6BEC13F001013E0E166F120012002E
:100AE00001011651270A02E12BEF0DF0010A02E184
:100AF000DDEF0CF0030A02E18DEF0CF0750A02E164
:100B000061EF0CF07C0A02E1EAEF0BF06E0A02E101
:100B10004BEF0BF0030A02E186EF0AF07F0A02E1D5
:100B200016EF0AF0030A02E1A1EF09F0010A01E160
:100B300092D3170A01E11ED31E0A01E195D2010AE0
:100B400001E116D2070A01E196D1010A01E11BD1A8
:100B5000180A01E1A5D0030A3AE0D60A01E0120022
:100B60002551000803E3140E256F280728510008BB
:100B700001E31669C70EE66E440EE66EE66AE66AA3
:100B8000EFEC15F0E552E552E552E552B60EE66E91
:100B9000440EE66EE66A010EE66EEFEC15F0E552E5
:100BA000E552E552E552000EE66EE66A98EC1FF05B
:100BB000E552E552010802E084EF0DF00101140E48
:100BC000286F6BEC13F00101290E8BEF0CF025510F
:100BD000000803E3140E256F28072851000801E3DD
:100BE00016692507A90EE66E440EE66EE66AE66A09
:100BF000EFEC15F0E552E552E552E552A00EE66E37
:100C0000440EE66E060EE66E010EE66EEFEC15F093
:100C1000E552E552E552E5529E0EE66E440EE66E52
:100C20000F0EE66EE66AEFEC15F0E552E552E5527E
:100C3000E552010EE66EE66A98EC1FF0E552E552C9
:100C4000010808E10101140E286F6BEC13F001019B
:100C50002C0E166F020EE66EE66A98EC1FF0E55257
:100C6000E552010808E10101140E286F6BEC13F046
:100C700001012A0E166F030EE66EE66A98EC1FF06D
:100C8000E552E552010802E084EF0DF00101140E77
:100C9000286F6BEC13F001011669010E176F12003B
:100CA0002551000803E3140E256F2807285100087A
:100CB00001E316692507A90EE66E440EE66EE66AA4
:100CC000E66AEFEC15F0E552E552E552E552A00E6A
:100CD000E66E440EE66E060EE66E010EE66EEFEC74
:100CE00015F0E552E552E552E5529E0EE66E440ED1
:100CF000E66E0F0EE66E010EE66EEFEC15F0E552B5
:100D0000E552E552E552010EE66EE66A98EC1FF0F8
:100D1000E552E552010808E10101140E286F6BEC61
:100D200013F00101290E166F020EE66EE66A98ECCA
:100D30001FF0E552E552010808E10101140E286F89
:100D40006BEC13F001012B0E166F030EE66EE66AD4
:100D500098EC1FF0E552E552010808E10101140E7C
:100D6000286F6BEC13F00101320E166F000EE66E69
:100D7000E66A98EC1FF0E552E552010802E084EFC4
:100D80000DF05DEF0CF02551000803E3140E256F04
:100D900028072851000803E3010E176F166925077D
:100DA0008F0EE66E440EE66EE66AE66AEFEC15F02C
:100DB000E552E552E552E552880EE66E440EE66EC7
:100DC000080EE66E010EE66EEFEC15F0E552E55208
:100DD000E552E5529E0EE66E440EE66E0F0EE66E8E
:100DE000E66AEFEC15F0E552E552E552E552010EE8
:100DF000E66EE66A98EC1FF0E552E552010808E15C
:100E00000101140E286F6BEC13F00101350E166F03
:100E1000020EE66EE66A98EC1FF0E552E552010814
:100E200008E10101140E286F6BEC13F00101330E81
:100E3000166F030EE66EE66A98EC1FF0E552E55277
:100E4000010808E10101140E286F6BEC13F0010199
:100E50000A0E166F000EE66EE66A98EC1FF0E55279
:100E6000E552010801E083D101012B5101E07FD15E
:100E7000010E176F75D12551000803E3140E256F7D
:100E800028072851000804E3020E176F246B166927
:100E900025078F0EE66E440EE66EE66AE66AEFEC14
:100EA00015F0E552E552E552E552880EE66E440E25
:100EB000E66E080EE66E010EE66EEFEC15F0E552FA
:100EC000E552E552E5529E0EE66E440EE66E0F0EBA
:100ED000E66E010EE66EEFEC15F0E552E552E552D6
:100EE000E552010EE66EE66A98EC1FF0E552E55217
:100EF000010808E10101140E286F6BEC13F00101E9
:100F0000320E166F020EE66EE66A98EC1FF0E5529E
:100F1000E552010808E10101140E286F6BEC13F093
:100F20000101340E166F030EE66EE66A98EC1FF0B0
:100F3000E552E55201080CE10101140E286F88EC1E
:100F400020F0B4EC20F06BEC13F001010C0E166FE6
:100F5000000EE66EE66A98EC1FF0E552E5520108D5
:100F600001E005D101012B5101E001D1020EF6D0C3
:100F70002551000803E3140E256F280728510008A7
:100F800004E3030E176F246B16692507790EE66ECE
:100F9000440EE66EE66AE66AEFEC15F0E552E552BD
:100FA000E552E552720EE66E440EE66E080EE66EEF
:100FB000010EE66EEFEC15F0E552E552E552E55212
:100FC0009E0EE66E440EE66E0F0EE66EE66AEFECDF
:100FD00015F0E552E552E552E552010EE66EE66A7D
:100FE00098EC1FF0E552E552010808E10101140EEA
:100FF000286F6BEC13F00101330E166F020EE66ED4
:10100000E66A98EC1FF0E552E552010808E101019B
:10101000140E286F6BEC13F00101350E166F030EE2
:10102000E66EE66A98EC1FF0E552E55201080CE125
:101030000101140E286F9EEC20F0A9EC20F06BEC5F
:1010400013F001010D0E166F000EE66EE66A98ECC5
:101050001FF0E552E552010801E089D001012B5152
:1010600001E085D0030E7AD02551000803E3140E69
:10107000256F28072851000804E3040E176F246B1E
:1010800016692507790EE66E440EE66EE66AE66A94
:10109000EFEC15F0E552E552E552E552720EE66EC0
:1010A000440EE66E080EE66E010EE66EEFEC15F0ED
:1010B000E552E552E552E5529E0EE66E440EE66EAE
:1010C0000F0EE66E010EE66EEFEC15F0E552E552FE
:1010D000E552E552010EE66EE66A98EC1FF0E55225
:1010E000E552010808E10101140E286F6BEC13F0C2
:1010F0000101340E166F020EE66EE66A98EC1FF0E0
:10110000E552E552010808E10101140E286F6BEC6D
:1011100013F00101320E166F030EE66EE66A98ECCC
:101120001FF0E552E55201080CE10101140E286F91
:1011300093EC20F0A9EC20F06BEC13F001010E0E03
:10114000166F000EE66EE66A98EC1FF0E552E55267
:1011500001080DE101012B510AE1040E176F246B08
:10116000140E286F6BEC13F001012A0ED4D3010189
:101170002B6B12002551000803E3140E256F28077E
:101180002851000801E316692507620EE66E440E39
:10119000E66EE66AE66AEFEC15F0E552E552E552D6
:1011A000E5525B0EE66E440EE66E060EE66E010E2E
:1011B000E66EEFEC15F0E552E552E552E5529E0E73
:1011C000E66E440EE66E0F0EE66EE66AEFEC15F084
:1011D000E552E552E552E552010EE66EE66A98ECFC
:1011E0001FF0E552E552010808E10101140E286FD5
:1011F0006BEC13F001012A0E166F020EE66EE66A22
:1012000098EC1FF0E552E552010808E10101140EC7
:10121000286F6BEC13F001012C0E166F030EE66EB7
:10122000E66A98EC1FF0E552E552010808E1010179
:10123000140E286F6BEC13F001013C0E166F000EBC
:10124000E66EE66A98EC1FF0E552E552010802E00E
:1012500084EF0DF032D32551000803E3140E256FFF
:1012600028072851000801E316692507500EE66E8D
:10127000440EE66EE66AE66AEFEC15F0E552E552DA
:10128000E552E552480EE66E440EE66E050EE66E39
:10129000010EE66EEFEC15F0E552E552E552E5522F
:1012A0009E0EE66E440EE66E0F0EE66EE66AEFECFC
:1012B00015F0E552E552E552E552010EE66EE66A9A
:1012C00098EC1FF0E552E552010808E10101140E07
:1012D000286F6BEC13F001013E0E166F020EE66EE6
:1012E000E66A98EC1FF0E552E552010808E10101B9
:1012F000140E286F6BEC13F001013D0E166F030EF8
:10130000E66EE66A98EC1FF0E552E55201080AE144
:101310000101140E286F460E2A6F6BEC13F00101C9
:10132000140E166F000EE66EE66A98EC1FF0E5529A
:10133000E552010801E0E6D001012E0501E0E2D00E
:10134000DAD02551000803E3140E256F2807285131
:10135000000801E316692507500EE66E440EE66E9E
:10136000E66AE66AEFEC15F0E552E552E552E55221
:10137000480EE66E440EE66E050EE66E010EE66E53
:10138000EFEC15F0E552E552E552E5529E0EE66EA1
:10139000440EE66E0F0EE66E010EE66EEFEC15F0F3
:1013A000E552E552E552E552010EE66EE66A98EC2A
:1013B0001FF0E552E552010808E10101140E286F03
:1013C0006BEC13F001013C0E166F020EE66EE66A3E
:1013D00098EC1FF0E552E552010808E10101140EF6
:1013E000286F6BEC13F001013E0E166F030EE66ED4
:1013F000E66A98EC1FF0E552E55201080AE10101A6
:10140000140E286F6BEC13F019C129F10101160EAF
:10141000166F000EE66EE66A98EC1FF0E552E55294
:10142000010870E101012E056DE165D0255100082C
:1014300003E3140E256F28072851000801E31669FD
:1014400025073A0EE66E440EE66EE66AE66AEFECB3
:1014500015F0E552E552E552E5529E0EE66E440E59
:10146000E66E0F0EE66EE66AEFEC15F0E552E55219
:10147000E552E552010EE66EE66A98EC1FF0E55281
:10148000E552010808E10101140E286F6BEC13F01E
:1014900001013D0E166F020EE66EE66A98EC1FF033
:1014A000E552E552010808E10101140E286F6BECCA
:1014B00013F001013C0E166F030EE66EE66A98EC1F
:1014C0001FF0E552E55201080AE10101140E286FF0
:1014D0006BEC13F01AC129F10101170E166F000E03
:1014E000E66EE66A98EC1FF0E552E55201080AE163
:1014F00001012E0507E1140E286F6BEC13F00101BA
:101500002B0E09D20101010E2E6F12002551000889
:1015100003E3140E256F28072851000801E316691C
:1015200025072B0EE66E440EE66EE66AE66AEFECE1
:1015300015F0E552E552E552E552280EE66E440EEE
:10154000E66E0B0EE66E010EE66EEFEC15F0E55260
:10155000E552E552E5529E0EE66E440EE66E0F0E23
:10156000E66EE66AEFEC15F0E552E552E552E5521B
:10157000010EE66EE66A98EC1FF0E552E5520108AE
:1015800008E10101140E286F6BEC13F00101420E0B
:10159000166F020EE66EE66A98EC1FF0E552E55211
:1015A000010808E10101140E286F6BEC13F0010132
:1015B000420E166FBDEC1FF001080FE1460E01014F
:1015C0002A5D0BE1010E2F6F140E286F6BEC13F0E8
:1015D00029C11EF101013C0E166FBDEC1FF0010880
:1015E0000FE1470E01012A5D0BE1010E306F140E71
:1015F000286F6BEC13F029C11DF101013D0E166F30
:10160000BDEC1FF001080FE1480E01012A5D0BE15E
:10161000010E316F140E286F6BEC13F029C11FF10E
:1016200001013E0E166F000EE66EE66A98EC1FF0A2
:10163000E552E55201080BE1460E01012A5D07E182
:10164000140E286F6BEC13F001013C0E166F000EA8
:10165000E66EE66A98EC1FF0E552E55201080BE1F0
:10166000470E01012A5D07E1140E286F6BEC13F0A1
:1016700001013D0E166F000EE66EE66A98EC1FF053
:10168000E552E552010801E03FD2480E01012A5D12
:1016900001E03AD298D02551000803E3140E256FDB
:1016A00028072851000801E3166925072B0EE66E6E
:1016B000440EE66EE66AE66AEFEC15F0E552E55296
:1016C000E552E552280EE66E440EE66E0B0EE66E0F
:1016D000010EE66EEFEC15F0E552E552E552E552EB
:1016E0009E0EE66E440EE66E0F0EE66E010EE66E80
:1016F000EFEC15F0E552E552E552E552010EE66ECB
:10170000E66A98EC1FF0E552E552010808E1010194
:10171000140E286F6BEC13F00101410E166F020ED0
:10172000E66EE66A98EC1FF0E552E552010808E122
:101730000101140E286F6BEC13F00101410E166FBE
:10174000BDEC1FF0010808E10101140E286F6BECDD
:1017500013F001013C0E166F000EE66EE66A98EC7F
:101760001FF0E552E55201080BE1460E01012A5D2A
:1017700007E1140E286F6BEC13F001013C0E166F9D
:10178000000EE66EE66A98EC1FF0E552E55201089D
:101790000BE1470E01012A5D07E1140E286F6BEC87
:1017A00013F001013D0E166F000EE66EE66A98EC2E
:1017B0001FF0E552E552010801E0A6D1480E0101F3
:1017C0002A5D01E0A1D1140E286F6BEC13F001012A
:1017D0003E0EA1D02551000803E3140E256F280703
:1017E0002851000801E316692507620EE66E440ED3
:1017F000E66EE66AE66AEFEC15F0E552E552E55270
:10180000E5525B0EE66E440EE66E060EE66E010EC7
:10181000E66EEFEC15F0E552E552E552E5529E0E0C
:10182000E66E440EE66E0F0EE66E010EE66EEFEC0F
:1018300015F0E552E552E552E552010EE66EE66A14
:1018400098EC1FF0E552E552010808E10101140E81
:10185000286F6BEC13F001012B0E166F020EE66E73
:10186000E66A98EC1FF0E552E552010808E1010133
:10187000140E286F6BEC13F00101290E166F030E86
:10188000E66EE66A98EC1FF0E552E55201080BE1BE
:1018900054EC20F00101140E286F6BEC13F00101E1
:1018A000500E166F176F000EE66EE66A98EC1FF08A
:1018B000E552E552010801E027D10101140E286F1D
:1018C0001AD1180EE66E440EE66EE66AE66AEFEC92
:1018D00015F0E552E552E552E552B60EE66E440EBD
:1018E000E66EE66A010EE66EEFEC15F0E552E552A3
:1018F000E552E552000EE66EE66A98EC1FF0E552FE
:10190000E552010801E000D10101140E286F6BECD3
:1019100013F001012C0E166F1200010E326F2551CB
:10192000000803E3140E256F280725072851000837
:1019300005E30101220E876F01011669090EE66EAB
:10194000440EE66EE66AE66AEFEC15F0E552E55203
:10195000E552E552FF0EE66E430EE66EE66A010EB4
:10196000E66EEFEC15F0E552E552E552E55221C185
:1019700010F0116A126A136A21C1E6FF11C0E6FF76
:1019800012C0E6FF13C0E6FF0A0EE66E010EE66E19
:10199000C8EC14F0146E060EE15E1450000EE66EF4
:1019A000E66A98EC1FF0E552E552010801E0A8D084
:1019B00001012D0501E0A4D09BD0010E336F25510C
:1019C000000803E3140E256F280725072851000897
:1019D00005E30101220E876F01011669090EE66E0B
:1019E000440EE66EE66AE66AEFEC15F0E552E55263
:1019F000E552E552F20EE66E430EE66EE66A010E21
:101A0000E66EEFEC15F0E552E552E552E55220C1E5
:101A100010F0116A126A136A20C1E6FF11C0E6FFD6
:101A200012C0E6FF13C0E6FF0C0EE66E010EE66E76
:101A3000C8EC14F0146E060EE15E1450000EE66E53
:101A4000E66A98EC1FF0E552E552010859E1010100
:101A50002D0556E14DD0010E346F2551000803E3EA
:101A6000140E256F280725072851000805E30101FA
:101A7000220E876F01011669090EE66E440EE66EAE
:101A8000E66AE66AEFEC15F0E552E552E552E552FA
:101A9000E40EE66E430EE66EE66A010EE66EEFECCD
:101AA00015F0E552E552E552E55222C110F0116AF7
:101AB000126A136A22C1E6FF11C0E6FF12C0E6FFF8
:101AC00013C0E6FF0D0EE66E010EE66EC8EC14F0D4
:101AD000146E060EE15E1450000EE66EE66A98EC97
:101AE0001FF0E552E55201080BE101012D0508E167
:101AF0000101220E876F6BEC13F0010116691200D1
:101B00000101010E2D6F1200120001018751C80A58
:101B100001E15AD1010A01E154D19B0A01E11ED130
:101B2000030A01E1F1D06A0A01E193D0140A4AE004
:101B30001B0A01E012000101810501E05AD1816B0D
:101B4000520E0001815D01E038D1300E106E8251DD
:101B5000D880105401E231D18251390801E22DD1EF
:101B6000300E116E8351D880115401E226D1835179
:101B7000390801E222D1300E835D106E300E825D95
:101B80000A0DF35010240101216F6BEC13F00101D9
:101B9000020E286F250E166F0101220E876FC50EEB
:101BA000E66E430EE66E8CEC1BF0E552E552B10E8C
:101BB000E66E430EE66E8CEC1BF0E552E55221C159
:101BC00010F08DD00101810501E013D1816B470E2A
:101BD0000001815D01E0F1D0300E106E8251D8809D
:101BE000105401E2EAD08251390801E2E6D0300E09
:101BF000116E8351D880115401E2DFD0835139082E
:101C000001E2DBD0300E835D106E300E825D0A0D76
:101C1000F35010240101206F020E286F6BEC13F0BB
:101C20000101260E166F0101220E876FC50EE66EAA
:101C3000430EE66E8CEC1BF0E552E5528B0EE66E21
:101C4000430EE66E8CEC1BF0E552E55220C110F01D
:101C500046D00101810501E0CCD0816B590E000115
:101C6000815D01E0AAD0300E106E8251D8801054F0
:101C700001E2A3D08251390801E29FD0300E116EEB
:101C80008351D880115401E298D08351390801E280
:101C900094D0300E835D106E300E825D0A0DF350CD
:101CA00010240101226F020E286F6BEC13F001016A
:101CB000270E166F0101220E876FC50EE66E430ECA
:101CC000E66E8CEC1BF0E552E552740EE66E430EA8
:101CD000E66E8CEC1BF0E552E55222C110F0116A61
:101CE000126A136A10C0E6FF11C0E6FF12C0E6FFD9
:101CF00013C0E6FF23EC1CF0E552E552E552E55235
:101D0000A40EE66E430E67D00101810572E1816B7E
:101D1000530E0001815D51E14C0E825D4EE14F0E8C
:101D2000835D4BE154EC20F00101140E286F6BEC45
:101D300013F00101500E166F0101220E876F010191
:101D4000500E176FC50EE66E430EE66E8CEC1BF060
:101D5000E552E5525D0EE66E430E26D00101810587
:101D600048E1816B410E0001815D27E1540E825DE7
:101D700024E14F0E835D21E10101140E286F6BEC0D
:101D800013F0010116690101220E876F0101010E96
:101D9000176FC50EE66E430EE66E8CEC1BF0E55237
:101DA000E552410EE66E430EE66E8CEC1BF0E552FA
:101DB000E552A10EE66E430E0ED00101010E816FB9
:101DC0000101C80E876F12000101810512E1816BCC
:101DD0001E0EE66E430EE66E8CEC1BF0E552E552ED
:101DE000A10EE66E430EE66E8CEC1BF0E552E5525A
:041DF00012001200CB
:0C1DF400D9CFE6FFE1CFD9FF040EE126B5
:101E0000DE6ADD6ADECF10F0DDCF11F0126A136AF0
:101E100011AE02D012681368D950FB0FE96EFF0EA5
:101E2000DA20EA6EEE50105CEE501158EE50125867
:101E3000EE5013581DE2020EDB6A030EDB6A020E3F
:101E4000DBCF10F0030EDBCF11F0D890115004E679
:101E5000050E105C000E115806E2020EDB2A030E7E
:101E6000EEE3DB2AECD7DF2A010ECCE3DB2ACAD76C
:101E7000040EE15C02E2E16AE552E16EE552E7CF71
:101E8000D9FF1200D9CFE6FFE1CFD9FF040EE1263A
:101E9000DE6ADD6ADECF10F0DDCF11F0126A136A60
:101EA00011AE02D012681368D950FB0FE96EFF0E15
:101EB000DA20EA6EEE50105CEE501158EE501258D7
:101EC000EE5013581DE2020EDB6A030EDB6A020EAF
:101ED000DBCF10F0030EDBCF11F0D890115004E6E9
:101EE000EE0E105C000E115806E2020EDB2A030E05
:101EF000EEE3DB2AECD7DF2A010ECCE3DB2ACAD7DC
:101F0000040EE15C02E2E16AE552E16EE552E7CFE0
:101F1000D9FF1200D9CFE6FFE1CFD9FF0F0E81160E
:101F2000FE0EDB50F00B81128186010EE66EE66A32
:101F3000E66AE66AA7DFE552E552E552E552819688
:101F4000010EE66EE66AE66AE66A9CDFE552E55255
:101F5000E552E5520F0E8116FE0EDB38F00B8112B2
:101F60008186010EE66EE66AE66AE66A8BDFE55276
:101F7000E552E552E5528196010EE66EE66AE66AA2
:101F8000E66A80DFE552E552E552E552E552E7CFD9
:101F9000D9FF1200D9CFE6FFE1CFD9FFE652936A0D
:101FA000190EE66EE66AE66AE66A6CDFE552E5520D
:101FB000E552E5520F0E8116F80E81160F0E8116AE
:101FC000300E81128186010EE66EE66AE66AE66AE6
:101FD00059DFE552E552E552E5528196010EE66E73
:101FE000E66AE66AE66A4EDFE552E552E552E552F8
:101FF0000F0E8116300E81128186010EE66EE66AA2
:10200000E66AE66A3FDFE552E552E552E55281961F
:10201000010EE66EE66AE66AE66A34DFE552E552EC
:10202000E552E5520F0E8116300E81128186010EA7
:10203000E66EE66AE66AE66A25DFE552E552E552B3
:10204000E5528196010EE66EE66AE66AE66A1ADFF6
:10205000E552E552E552E5520F0E8116818A8186DE
:10206000010EE66EE66AE66AE66A0CDFE552E552C4
:10207000E552E5528196010EE66EE66AE66AE66A88
:1020800001DFE552E552E552E552280EE66E42DFE9
:10209000E5520C0EE66E3EDFE552E552E552E7CF23
:1020A000D9FF1200D9CFE6FFE1CFD9FF020EE1261A
:1020B000DF6A010EDB6A81940F0EE66EE66AE66A5D
:1020C000E66A98DEE552E552E552E5520F0E8112BE
:1020D0008186E66EE66AE66AE66A8CDEE552E552DD
:1020E000E552E5520F0E8114E76E010EE7CFDBFFDC
:1020F00081960F0EE66EE66AE66AE66A7BDEE552D8
:10210000E552E552E5520F0E81128186E66EE66ACF
:10211000E66AE66A6FDEE552E552E552E5520F0ED9
:102120008114DF6E010EDB50DF128196010EE66E28
:10213000E66AE66AE66A5EDEE552E552E552E55297
:10214000DF50106E020EE15C02E2E16AE552E16EE0
:102150001050E552E7CFD9FF1200D9CFE6FFE1CF0B
:10216000D9FFE652DF6A9EDFDF6EDFBEFCD7DF50AD
:10217000E552E552E7CFD9FF1200D9CFE6FFE1CF14
:10218000D9FF0F0E8116FE0EDB5081128186050EDF
:10219000E66EE66AE66AE66A2DDEE552E552E5524B
:1021A000E5528196050EE66EE66AE66AE66A22DE8A
:1021B000E552E552E552E552E552E7CFD9FF12006C
:1021C000D9CFE6FFE1CFD9FF8194050EE66EE66A2E
:1021D000E66AE66A0FDEE552E552E552E552FE0E8A
:1021E000DBCFE6FFCADFE552FE0EDB38F00BE66E12
:1021F000C4DFE552E552E7CFD9FF1200D9CFE6FFA1
:10220000E1CFD9FF8184050EE66EE66AE66AE66AEA
:10221000F1DDE552E552E552E552FE0EDBCFE6FF79
:10222000ACDFE552FE0EDB38F00BE66EA6DFE552C2
:102230008194E552E7CFD9FF1200D9CFE6FFE1CF75
:10224000D9FFFE0EDBCFE6FFD9DFE552E552E7CF3F
:10225000D9FF1200D9CFE6FFE1CFD9FFFE0EDBCFC9
:10226000E6FFCCDFE552E552E7CFD9FF1200D9CF28
:10227000E6FFE1CFD9FFFD0EDBCFF6FFFE0EDBCF91
:10228000F7FF0800F5500FE0FD0EDBCFF6FFDB2A6D
:10229000FE0EDBCFF7FF01E3DB2A0800F550E66E08
:1022A000D9DFE552E8D7E552E7CFD9FF1200D9CF01
:1022B000E6FFE1CFD9FFE652FD0EDB500F0B106EAB
:1022C000FE0EDB50010B400DF3501024DF6E7F0E2D
:1022D000DF14800FDF6EDFCFE6FF72DFE552E552DD
:1022E000E552E7CFD9FF1200010EE66E69DFE55235
:1022F000E66AE66ADCDFE552E5521200D9CFE6FF76
:10230000E1CFD9FF050EE126010EF36EDB6E020E62
:10231000DB6A030EDB6A040EDB6ADF6ADFCF10F0D4
:10232000116A10BE1168FB0EDBCF12F0FC0EDBCF82
:1023300013F011501318E8AE02D0133404D0125029
:10234000105C135011582DE2FD0EDBCF10F0FE0E85
:10235000DBCF11F0126A136A11AE02D01268136853
:10236000D950010FE96EDACFEAFF10C00BF011C0AF
:102370000CF012C00DF013C00EF0EECF06F0EECF51
:1023800007F0EECF08F0EFCF09F009EC25F005C01B
:10239000EDFF04C0EDFF03C0EDFF02C0EFFFDF2A39
:1023A000BDD7010EDBCF10F0020EDBCF11F0030E14
:1023B000DBCF12F0040EDBCF13F010C006F011C01B
:1023C00007F012C008F013C009F0050EE15C02E24C
:1023D000E16AE552E16EE552E7CFD9FF1200D9CFAD
:1023E000E6FFE1CFD9FF020EE126DF6AFB0EDBCF6D
:1023F00010F0FC0EDBCF11F0FD0EDBCF12F0FE0E65
:10240000DBCF13F0105011101210131005E1300E35
:10241000E66E20DFE552F4D0D950FB0FE96EFF0ED7
:10242000DA20EA6ED890030EEB50000A08E6000EA0
:10243000EE5C000EEE58000EEE58000EEE5815E25F
:102440002D0EE66E07DFE552D950FB0FE96EFF0E49
:10245000DA20EA6E000EEE6CEF1EEE22EF1EEE2288
:10246000EF1EEF22ED52ED52ED52DE52070EDD6E01
:10247000010EDBCF10F0000EE76E1018E8AE02D0B0
:10248000103403D0E750D880105401E3B9D0010EC6
:10249000DB04146E156A14BE156814C0E6FF15C07F
:1024A000E6FF0A0EE66EE66A29DFE552E552E552DE
:1024B000E55206C010F007C011F008C012F009C0C4
:1024C00013F006C00BF007C00CF008C00DF009C0F7
:1024D0000EF0FB0EDBCF06F0FC0EDBCF07F0FD0E9F
:1024E000DBCF08F0FE0EDBCF09F041EC25F0065003
:1024F00007100810091041E0010EDF6EDB04186EB2
:10250000196A18BE196818C0E6FF19C0E6FF0A0E5E
:10251000E66EE66AF3DEE552E552E552E55206C0A4
:1025200014F007C015F008C016F009C017F006C077
:102530000BF007C00CF008C00DF009C00EF0FB0E48
:10254000DBCF06F0FC0EDBCF07F0FD0EDBCF08F093
:10255000FE0EDBCF09F041EC25F006C010F007C0FD
:1025600011F008C012F009C013F0300E1026000E52
:10257000112212221322105003D0DF5004E0300E3B
:10258000E66E68DEE552010EDB04146E156A14BEB9
:10259000156814C0E6FF15C0E6FF0A0EE66EE66A8F
:1025A000ADDEE552E552E552E55206C010F007C037
:1025B00011F008C012F009C013F0D950FB0FE96EFA
:1025C000FF0EDA20EA6E06C00BF007C00CF008C060
:1025D0000DF009C00EF0EECF06F0EECF07F0EECF13
:1025E00008F0EFCF09F041EC25F005C0EDFF04C085
:1025F000EDFF03C0EDFF02C0EFFF010EDB0638D791
:10260000020EE15C02E2E16AE552E16EE552E7CFDB
:10261000D9FF1200D9CFE6FFE1CFD9FFFD0EDBCF06
:10262000E6FFFE0EDBCFE6FF42DEE552E552D95073
:10263000F90FE96EFF0EDA20EA6EEECFE6FFEECF7D
:10264000E6FFEECFE6FFEFCFE6FFC9DEE552E5524B
:10265000E552E552E552E7CFD9FF1200D9CFE6FFA8
:10266000E1CFD9FFFD0EDBCFE6FFFE0EDBCFE6FFAD
:102670001EDEE552E552FB0EDBCFE6FFFC0EDBCFA4
:10268000E6FFF5DDE552E552E552E7CFD9FF12004E
:10269000D9CFE6FFE1CFD9FF7BCF10F07CCF11F08F
:1026A000040ED89010361136E806FBE1410E1026D4
:1026B0000F0E112210500F017D25E96E11507E2161
:1026C000EA6EFE0EDBCFEFFF7D2B000E7E23E55280
:1026D000E7CFD9FF1200D9CFE6FFE1CFD9FFE6520D
:1026E000DF6ADFCF10F0100EE76E1018E8AE02D0F0
:1026F000E73402D0E750105C18E2DFCFE9FFEA6A66
:10270000E9BEEA68410EE9260F0EEA22200EEF6EBE
:10271000DFCFE9FFEA6AE9BEEA68510EE9260F0E4B
:10272000EA22200EEF6EDF2ADCD7E552E552E7CF32
:10273000D9FF1200D9CFE6FFE1CFD9FFE6520F0152
:102740004051030A52E0010A36E0030A1AE0010A86
:1027500067E1E66AE66AABDDE552E552DF6A080E3C
:10276000DF5C0CE2DF50EA6A410FE96E0F0EEA22ED
:10277000EF50E66E6FDDE552DF2AF1D70F01010E53
:1027800032D0080EE66EE66A92DDE552E552DF6A67
:10279000080EDF5C0DE2080EDF24EA6A410FE96EE5
:1027A0000F0EEA22EF50E66E55DDE552DF2AF0D734
:1027B0000F01020E18D0E66A010EE66E78DDE552D2
:1027C000E552DF6A080EDF5C0CE2DF50EA6A510F67
:1027D000E96E0F0EEA22EF50E66E3CDDE552DF2A8D
:1027E000F1D70F01030E406F1CD0080EE66E010EEC
:1027F000E66E5DDDE552E552DF6A080EDF5C0DE254
:10280000080EDF24EA6A510FE96E0F0EEA22EF503C
:10281000E66E20DDE552DF2AF0D70F01406B01D0D4
:10282000406BE552E552E7CFD9FF1200D9CFE6FF62
:10283000E1CFD9FFE6520F014051010A1BE0010A26
:1028400032E1E66AE66A33DDE552E552DF6A100EF0
:10285000DF5C0CE2DF50EA6A410FE96E0F0EEA22FC
:10286000EF50E66EF7DCE552DF2AF1D70F01010EDB
:10287000406F1AD0E66A010EE66E19DDE552E552A8
:10288000DF6A100EDF5C0CE2DF50EA6A510FE96E7E
:102890000F0EEA22EF50E66EDDDCE552DF2AF1D7BB
:1028A0000F01406B01D0406BE552E552E7CFD9FFF5
:1028B0001200D9CFE6FFE1CFD9FFE652E66AE66A19
:1028C000F6DCE552E552DF6A100EDF5C0CE2DF5009
:1028D000EA6A410FE96E0F0EEA22EF50E66EBADCAB
:1028E000E552DF2AF1D7E66A010EE66EE0DCE5523A
:1028F000E552DF6A100EDF5C0CE2DF50EA6A510F2E
:10290000E96E0F0EEA22EF50E66EA4DCE552DF2AF4
:10291000F1D7E552E552E7CFD9FF1200D9CFE6FF54
:10292000E1CFD9FFFE0EDB50010B0F017B6F7C6BFB
:10293000FD0EDB500F0B7D6F7E6BFC0EDB500A082B
:1029400002E1610E05D0FC0EDB500D0805E1640EBE
:10295000F36EFC0EF3CFDBFF7BCF10F07CCF11F0DA
:10296000040ED89010361136E806FBE1410E102611
:102970000F0E112210500F017D25E96E11507E219E
:10298000EA6EFC0EDBCFEFFFE552E7CFD9FF120076
:10299000D9CFE6FFE1CFD9FF020EE126DF6AFE0EB6
:1029A000DB50010B0F017B6F7C6BFD0EDB500F0BBF
:1029B0007D6F7E6BF90EDBCF10F0FA0EDBCF11F0DE
:1029C000FB0EDBCF12F0FC0EDBCF13F0105011101A
:1029D0001210131005E1300EE66E5ADEE552F5D006
:1029E000D950F90FE96EFF0EDA20EA6ED890030E87
:1029F000EB50000A08E6000EEE5C000EEE58000EEA
:102A0000EE58000EEE5815E22D0EE66E41DEE55250
:102A1000D950F90FE96EFF0EDA20EA6E000EEE6C67
:102A2000EF1EEE22EF1EEE22EF1EEF22ED52ED52D0
:102A3000ED52DE52070EDD6E010EDBCF10F0000E00
:102A4000E76E1018E8AE02D0103403D0E750D880FB
:102A5000105401E3BAD0010EDB04146E156A14BEE3
:102A6000156814C0E6FF15C0E6FF0A0EE66EE66ABA
:102A700045DCE552E552E552E55206C010F007C0CC
:102A800011F008C012F009C013F006C00BF007C027
:102A90000CF008C00DF009C00EF0F90EDBCF06F007
:102AA000FA0EDBCF07F0FB0EDBCF08F0FC0EDBCF1E
:102AB00009F041EC25F0065007100810091041E01C
:102AC000010EDF6EDB04186E196A18BE196818C093
:102AD000E6FF19C0E6FF0A0EE66EE66A0FDCE55275
:102AE000E552E552E55206C014F007C015F008C0E3
:102AF00016F009C017F006C00BF007C00CF008C0B4
:102B00000DF009C00EF0F90EDBCF06F0FA0EDBCFA8
:102B100007F0FB0EDBCF08F0FC0EDBCF09F041EC39
:102B200025F006C010F007C011F008C012F009C06F
:102B300013F0300E1026000E112212221322105014
:102B400003D0DF5004E0300EE66EA2DDE552010E48
:102B5000DB04146E156A14BE156814C0E6FF15C0B8
:102B6000E6FF0A0EE66EE66A7EEC11F0E552E552EB
:102B7000E552E55206C010F007C011F008C012F08F
:102B800009C013F0D950F90FE96EFF0EDA20EA6E92
:102B900006C00BF007C00CF008C00DF009C00EF025
:102BA000EECF06F0EECF07F0EECF08F0EFCF09F052
:102BB00041EC25F005C0EDFF04C0EDFF03C0EDFFC3
:102BC00002C0EFFF010EDB0637D7020EE15C02E226
:102BD000E16AE552E16EE552E7CFD9FF1200D9CFA5
:102BE000E6FFE1CFD9FFFE0EDB50010B0F017B6F3B
:102BF0007C6BFD0EDB500F0B7D6F7E6BFB0EDBCF16
:102C0000F6FFFC0EDBCFF7FF0800F5500FE0FB0EE0
:102C1000DBCFF6FFDB2AFC0EDBCFF7FF01E3DB2A7D
:102C20000800F550E66E34DDE552E8D7E552E7CF0F
:042C3000D9FF1200B6
:0C2C3400D9CFE6FFE1CFD9FFD59EFD0E01
:102C4000DBCF5EF1FE0EDBCF5FF1D59C136814681D
:102C5000156A5EC116F05FC117F0186A1650135C52
:102C6000106E17501458116E18501558126E0C6AC9
:102C7000010E0D6E0E6A10C007F011C008F012C0F0
:102C800009F045EC24F00350D66E13681468156AF9
:102C90005EC116F05FC117F0186A1650135C106E13
:102CA00017501458116E18501558126E0C6A010EF8
:102CB0000D6E0E6A10C007F011C008F012C009F0C6
:102CC00045EC24F007C010F008C011F009C012F064
:102CD0000750D76ED59AD586F28AF294F184D58EB4
:102CE000E552E7CFD9FF1200D59E12001368146891
:102CF000156A5EC116F05FC117F0186A1650135CB2
:102D0000106E17501458116E18501558126E0C6A28
:102D1000010E0D6E0E6A10C007F011C008F012C04F
:102D200009F045EC24F00350D66E13681468156A58
:102D30005EC116F05FC117F0186A1650135C106E72
:102D400017501458116E18501558126E0C6A010E57
:102D50000D6E0E6A10C007F011C008F012C009F025
:102D600045EC24F007C010F008C011F009C012F0C3
:102D70000750D76ED58E1200D9CFE6FFE1CFD9FF2D
:102D8000CD90FD0EDBCF60F1FE0EDBCF61F113685D
:102D90001468156A60C116F061C117F0186A165000
:102DA000135C106E17501458116E18501558126E8F
:102DB0000C6A010E0D6E0E6A10C007F011C008F00B
:102DC00012C009F045EC24F00750CF6E1368146868
:102DD000156A60C116F061C117F0186A1650135CCD
:102DE000106E17501458116E18501558126E0C6A48
:102DF000010E0D6E0E6A10C007F011C008F012C06F
:102E000009F045EC24F003C010F004C011F005C037
:102E100012F00350CE6E9D809E909F90CD8ECD8CF3
:102E2000CD98CD9ACD96CD92CD80E552E7CFD9FF02
:102E3000120013681468156A60C116F061C117F0BA
:102E4000186A1650135C106E17501458116E1850F3
:102E50001558126E0C6A010E0D6E0E6A10C007F046
:102E600011C008F012C009F045EC24F00750CF6EF5
:102E700013681468156A60C116F061C117F0186A0A
:102E80001650135C106E17501458116E18501558C8
:102E9000126E0C6A010E0D6E0E6A10C007F011C0A2
:102EA00008F012C009F045EC24F003C010F004C093
:102EB00011F005C012F00350CE6ECD801200CD90FF
:102EC0001200D9CFE6FFE1CFD9FFCA94CC6AFE0E3B
:102ED000DB500101626F636BCB6E9D829E929F926D
:102EE000CA90CA92CA84E552E7CFD9FF120062C1E4
:102EF000CBFFCA841200CA941200D9CFE6FFE1CFFB
:102F0000D9FFB190FD0EDBCF64F1FE0EDBCF65F192
:102F100013681468156A64C116F065C117F0186A61
:102F20001650135C106E17501458116E1850155827
:102F3000126E0C6A010E0D6E0E6A10C007F011C001
:102F400008F012C009F045EC24F00750B36E136886
:102F50001468156A64C116F065C117F0186A165036
:102F6000135C106E17501458116E18501558126ECD
:102F70000C6A010E0D6E0E6A10C007F011C008F049
:102F800012C009F045EC24F003C010F004C011F0A9
:102F900005C012F00350B26EA082A192A292B18E2F
:102FA000B198B19AB192B180E552E7CFD9FF120042
:102FB00013681468156A64C116F065C117F0186AC1
:102FC0001650135C106E17501458116E1850155887
:102FD000126E0C6A010E0D6E0E6A10C007F011C061
:102FE00008F012C009F045EC24F00350B26E1368EB
:102FF0001468156A64C116F065C117F0186A165096
:10300000135C106E17501458116E18501558126E2C
:103010000C6A010E0D6E0E6A10C007F011C008F0A8
:1030200012C009F045EC24F007C010F008C011F000
:1030300009C012F00750B36EB1801200B1901200B7
:1030400001016E2B000E6F2376516E5D77516F5923
:1030500004E36E6B6F6B010E666F12000101702B43
:10306000000E71237851705D7951715904E3706BD2
:10307000716B010E676F12000101722B000E73233A
:103080007A51725D7B51735904E3726B736B010E5D
:10309000686F12000101742B000E75237C51745D62
:1030A0007D51755904E3746B756B010E696F1200E5
:1030B000D9CFE6FFE1CFD9FFFD0EDBCF76F1FE0ED3
:1030C000DBCF77F101016E6B6F6B666BE552E7CF7B
:1030D000D9FF1200D9CFE6FFE1CFD9FFFD0EDBCF3C
:1030E00078F1FE0EDBCF79F1050E0D6E0E6A78C118
:1030F00008F079C109F01FEC24F008C078F109C08C
:1031000079F10101706B716B676BE552E7CFD9FF05
:103110001200D9CFE6FFE1CFD9FFFD0EDBCF7AF168
:10312000FE0EDBCF7BF1050E0D6E0E6A7AC108F044
:103130007BC109F01FEC24F008C07AF109C07BF1D3
:103140000101726B736B686BE552E7CFD9FF120018
:10315000D9CFE6FFE1CFD9FFFD0EDBCF7CF1FE0E2C
:10316000DBCF7DF10A0E0D6E0E6A7CC108F07DC1C9
:1031700009F01FEC24F008C07CF109C07DF10101C9
:0E318000746B756B696BE552E7CFD9FF1200D7
:02318E00D9CF97
:10319000E6FFE1CFD9FF060EE126DE6ADD6AFD0E0D
:1031A000DBCFE9FFFE0EDBCFEAFFD890E936EA3647
:1031B000000EE926010EEA22040EEECFDBFF050E1B
:1031C000EDCFDBFF8396DECF10F0DDCF11F0D8908E
:1031D000115004E6080E105C000E11583CE2800EFF
:1031E000E76E040EDBCF10F0050EE7501016116AE3
:1031F000020E10C0DBFF030E11C0DBFF040EDBCF9D
:1032000010F0050EDBCF11F0D89010361136040EF9
:1032100010C0DBFF050E11C0DBFFD950020FE96EB5
:10322000DACFEAFF800EEE1801E1ED5002E0000E69
:1032300001D0010EE8B08384E8A083948386010E58
:10324000E66EE66AA4D9E552E5528396DF2A010EBE
:10325000BAE3DB2AB8D7060EE15C02E2E16AE55286
:10326000E16EE552E7CFD9FF1200D9CFE6FFE1CFFB
:10327000D9FF060EE126DE6ADD6AFD0EDBCFE9FF2F
:10328000FE0EDBCFEAFFD890E936EA36000EE926DB
:10329000010EEA22040EEECFDBFF050EEDCFDBFFC1
:1032A000839CDECF10F0DDCF11F0D890115004E6F2
:1032B000080E105C000E11583CE2800EE76E040E02
:1032C000DBCF10F0050EE7501016116A020E10C089
:1032D000DBFF030E11C0DBFF040EDBCF10F0050E89
:1032E000DBCF11F0D89010361136040E10C0DBFF82
:1032F000050E11C0DBFFD950020FE96EDACFEAFFED
:10330000800EEE1801E1ED5002E0000E01D0010E3A
:10331000E8B0838AE8A0839A838C010EE66EE66AA1
:1033200036D9E552E552839CDF2A010EBAE3DB2A47
:10333000B8D7060EE15C02E2E16AE552E16EE552C1
:10334000E7CFD9FF1200D9CFE6FFE1CFD9FF040EB6
:10335000E1260A0E106E116AFD0EDBCF08F0FE0E9C
:10336000DBCF09F010C00DF011C00EF01FEC24F0FF
:1033700008C0DEFF09C0DDFFFD0EDBCF10F0FE0E42
:10338000DBCF11F00A0E0D6E0E6A10C008F011C0EE
:1033900009F01FEC24F004C010F005C011F0020E7B
:1033A00004C0DBFF030E05C0DBFFD9CFE9FFDACF96
:1033B000EAFFEE50ED1003E10A0EDE6EDD6AD95031
:1033C000FD0FE96EFF0EDA20EA6E640EEE180BE1D7
:1033D000ED5009E10A0EDE6EDD6AF36E020EF3CFE8
:1033E000DBFF030EDB6A020EDBCFE6FF030EDBCF53
:1033F000E6FFDECFE6FFDDCFE6FF77D8E552E55208
:10340000E552E552040EE15C02E2E16AE552E16E4A
:10341000E552E7CFD9FF1200D9CFE6FFE1CFD9FFC0
:10342000040EE1260A0E106E116AFD0EDBCF08F0C5
:10343000FE0EDBCF09F010C00DF011C00EF01FEC36
:1034400024F008C0DEFF09C0DDFFFD0EDBCF10F069
:10345000FE0EDBCF11F00A0E0D6E0E6A10C008F0E2
:1034600011C009F01FEC24F004C010F005C011F0E9
:10347000020E04C0DBFF030E05C0DBFFD9CFE9FF5E
:10348000DACFEAFFEE50ED1003E10A0EDE6EDD6AE0
:10349000D950FD0FE96EFF0EDA20EA6E640EEE18C9
:1034A0000BE1ED5009E10A0EDE6EDD6AF36E020EED
:1034B000F3CFDBFF030EDB6A020EDBCFE6FF030E6A
:1034C000DBCFE6FFDECFE6FFDDCFE6FF37D8E55204
:1034D000E552E552E552040EE15C02E2E16AE55292
:1034E000E16EE552E7CFD9FF1200D9CFE6FFE1CF79
:1034F000D9FF8398FB0EDBCFE6FFFC0EDBCFE6FFA8
:1035000046DEE552E552FD0EDBCFE6FFFE0EDBCFD9
:10351000E6FF3DDEE552E5528388010EE66EE66A7F
:1035200036D8E552E5528398010EE66EE66A2FD84A
:10353000E552E552E552E7CFD9FF1200D9CFE6FFB9
:10354000E1CFD9FF839EFB0EDBCFE6FFFC0EDBCF86
:10355000E6FF8BDEE552E552FD0EDBCFE6FFFE0E09
:10356000DBCFE6FF82DEE552E552838E010EE66E8A
:10357000E66A0DD8E552E552839E010EE66EE66AD4
:1035800006D8E552E552E552E7CFD9FF1200D9CF70
:10359000E6FFE1CFD9FF040EE126DE6ADD6ADECF69
:1035A00010F0DDCF11F0FD0EDBCF12F0FE0EDBCF01
:1035B00013F011501318E8AE02D0133404D0125097
:1035C000105C135011581DE2020EDB6A030EDB6A19
:1035D000020EDBCF10F0030EDBCF11F0D8901150AC
:1035E00004E6010E105C000E115806E2020EDB2A02
:1035F000030EEEE3DB2AECD7DF2A010ED0E3DB2A51
:10360000CED7040EE15C02E2E16AE552E16EE552DA
:06361000E7CFD9FF120014
:0A361600B06A810EAF6EAC8AAC946E
:10362000B886AC98AB8EAB889E9A9D8A9F9A949CE4
:10363000948E1200D9CFE6FFE1CFD9FF040EE12628
:10364000DE6ADD6ADECF10F0DDCF11F0FD0EDBCFDC
:1036500012F0FE0EDBCF13F011501318E8AE02D0BB
:10366000133404D01250105C135011581DE2020E96
:10367000DB6A030EDB6A020EDBCF10F0030EDBCF3A
:1036800011F0D890115004E6EE0E105C000E1158A7
:1036900006E2020EDB2A030EEEE3DB2AECD7DF2A7A
:1036A000010ED0E3DB2ACED7040EE15C02E2E16A30
:1036B000E552E16EE552E7CFD9FF1200D9CFE6FF20
:1036C000E1CFD9FF9EA8FED7FE0EDB50AD6E9E98CF
:1036D000E552E7CFD9FF1200D9CFE6FFE1CFD9FFFE
:1036E000FD0EDBCFE9FFFE0EDBCFEAFFEF5010E06F
:1036F000FD0EDBCFE9FFFE0EDBCFEAFFEF50E66EFB
:10370000DDDFE552FD0EDB2AFE0EEAE3DB2AE8D719
:10371000E552E7CFD9FF1200D9CFE6FFE1CFD9FFBD
:10372000FD0EDBCFF6FFFE0EDBCFF7FF0800F550F6
:1037300015E0FD0EDBCFF6FFFE0EDBCFF7FF080036
:10374000F550E66EBBDFE552FD0EDBCFF6FFDB2A60
:10375000FE0EDBCFF7FFE4E3DB2AE2D7E552E7CF4B
:10376000D9FF1200D9CFE6FFE1CFD9FF050EE12640
:10377000010EF36EDB6E020EDB6A030EDB6A040ED3
:10378000DB6ADF6ADFCF10F0116A10BE1168FB0E32
:10379000DBCF12F0FC0EDBCF13F011501318E8AEA4
:1037A00002D0133404D01250105C135011582DE283
:1037B000FD0EDBCF10F0FE0EDBCF11F0126A136AA4
:1037C00011AE02D012681368D950010FE96EDACF3A
:1037D000EAFF10C00BF011C00CF012C00DF013C0C6
:1037E0000EF0EECF06F0EECF07F0EECF08F0EFCF01
:1037F00009F009EC25F005C0EDFF04C0EDFF03C0A2
:10380000EDFF02C0EFFFDF2ABDD7010EDBCF10F0C6
:10381000020EDBCF11F0030EDBCF12F0040EDBCF74
:1038200013F010C006F011C007F012C008F013C06A
:1038300009F0050EE15C02E2E16AE552E16EE55253
:10384000E7CFD9FF1200D9CFE6FFE1CFD9FF020EB3
:10385000E126DF6AFB0EDBCF10F0FC0EDBCF11F0B0
:10386000FD0EDBCF12F0FE0EDBCF13F01050111067
:103870001210131005E1300EE66E20DFE552F4D091
:10388000D950FB0FE96EFF0EDA20EA6ED890030ED6
:10389000EB50000A08E6000EEE5C000EEE58000E3B
:1038A000EE58000EEE5815E22D0EE66E07DFE552DB
:1038B000D950FB0FE96EFF0EDA20EA6E000EEE6CB7
:1038C000EF1EEE22EF1EEE22EF1EEF22ED52ED5222
:1038D000ED52DE520A0EDD6E010EDBCF10F0000E4F
:1038E000E76E1018E8AE02D0103403D0E750D8804D
:1038F000105401E3B9D0010EDB04146E156A14BE36
:10390000156814C0E6FF15C0E6FF0A0EE66EE66A0B
:1039100029DFE552E552E552E55206C010F007C036
:1039200011F008C012F009C013F006C00BF007C078
:103930000CF008C00DF009C00EF0FB0EDBCF06F056
:10394000FC0EDBCF07F0FD0EDBCF08F0FE0EDBCF69
:1039500009F041EC25F0065007100810091041E06D
:10396000010EDF6EDB04186E196A18BE196818C0E4
:10397000E6FF19C0E6FF0A0EE66EE66AF3DEE552E0
:10398000E552E552E55206C014F007C015F008C034
:1039900016F009C017F006C00BF007C00CF008C005
:1039A0000DF009C00EF0FB0EDBCF06F0FC0EDBCFF6
:1039B00007F0FD0EDBCF08F0FE0EDBCF09F041EC87
:1039C00025F006C010F007C011F008C012F009C0C1
:1039D00013F0300E1026000E112212221322105066
:1039E00003D0DF5004E0300EE66E68DEE552010ED3
:1039F000DB04146E156A14BE156814C0E6FF15C00A
:103A0000E6FF0A0EE66EE66AADDEE552E552E552E5
:103A1000E55206C010F007C011F008C012F009C04E
:103A200013F0D950FB0FE96EFF0EDA20EA6E06C0E4
:103A30000BF007C00CF008C00DF009C00EF0EECF7F
:103A400006F0EECF07F0EECF08F0EFCF09F041EC33
:103A500025F005C0EDFF04C0EDFF03C0EDFF02C07F
:103A6000EFFF010EDB0638D7020EE15C02E2E16AED
:103A7000E552E16EE552E7CFD9FF1200ACEF23F03B
:103A8000D9CFE6FFE1CFD9FF020EE126FE0EDB50D3
:103A90000F0BDF6EFE0EDB380F0B0A0D010EF3CF9E
:103AA000DBFFDB50DF24106E020EE15C02E2E16A14
:103AB000E552E16E1050E552E7CFD9FF1200D9CFA1
:103AC000E6FFE1CFD9FF020EE1260A0E106E0E6E60
:103AD000FE0EDBCF09F0D2EC25F00550DF6E0A0EAA
:103AE000106E0E6EFE0EDBCF09F0D2EC25F0095001
:103AF000100D010EF3CFDBFFDB50DF24106E020E42
:103B0000E15C02E2E16AE552E16E1050E552E7CF76
:103B1000D9FF120094869488C79EC79CC690C6920F
:103B2000C694C686310EC86EC68A1200D9CFE6FF8B
:103B3000E1CFD9FF9E96FE0EDB50D00FC96E9EA638
:103B4000FED7E552E7CFD9FF1200D9CFE6FFE1CF8C
:103B5000D9FF9E96FE0EDB50A00FC96E9EA6FED723
:103B6000E552E7CFD9FF12009E96C5809EA6FED7EC
:103B700012009E96C5849EA6FED71200D9CFE6FFFE
:103B8000E1CFD9FF9E96FE0EDB50C96E9EA6FED7F2
:103B9000E552E7CFD9FF12009E96C5869EA6FED7B6
:103BA000C95012009E96C59AC5889EA6FED71200DF
:103BB0009E96C58AC5889EA6FED71200D9CFE6FF7D
:103BC000E1CFD9FFD1DFE66AB1DFE5520101010E95
:103BD000986FE85004E0C550400BFAE0F8D7FE0EAD
:103BE000DBCFE6FFCBDFE5520101010E986FE85015
:103BF00004E0C550400BFAE0F8D7FD0EDBCFE6FF3E
:103C00005EDFE552E66EBADFE5520101010E986F04
:103C1000E85004E0C550400BFAE0F8D7AADFE552BF
:103C2000E7CFD9FF1200D9CFE6FFE1CFD9FF9CDF64
:103C3000E66A8BDFE5520101010E986FE85004E05F
:103C4000C550400BFAE0F8D7FE0EDBCFE6FF96DF5B
:103C5000E5520101010E986FE85004E0C550400B99
:103C6000FAE0F8D7FD0EDBCF10F0FE0EDBCF11F03F
:103C70000001116A1050E66E81DFE5520101010E6C
:103C8000986FE85004E0C550400BFAE0F8D7FC0EFE
:103C9000DBCFE6FF73DFE5520101010E986FE850BC
:103CA00004E0C550400BFAE0F8D763DFE552E7CFF8
:103CB000D9FF1200D9CFE6FFE1CFD9FFE65254DF9A
:103CC000E66A34DFE5520101010E986FE85004E026
:103CD000C550400BFAE0F8D7FE0EDBCFE6FF4EDF13
:103CE000E5520101010E986FE85004E0C550400B09
:103CF000FAE0F8D739DF010EE66E18DFE552010170
:103D0000010E986FE85004E0C550400BFAE0F8D778
:103D100043DFDF6EDFCFE6FFB3DEE552DF6EDF505D
:103D2000E552E552E7CFD9FF1200D9CFE6FFE1CF48
:103D3000D9FFE65219DFE66A08DFE5520101010EFC
:103D4000986FE85004E0C550400BFAE0F8D7FE0E3B
:103D5000DBCFE6FF13DFE5520101010E986FE8505B
:103D600004E0C550400BFAE0F8D7FD0EDBCF10F0B1
:103D7000FE0EDBCF11F00001116A1050E66EFEDE80
:103D8000E5520101010E986FE85004E0C550400B68
:103D9000FAE0F8D7E9DE010EE66ED7DEE552010162
:103DA000010E986FE85004E0C550400BFAE0F8D7D8
:103DB000F3DEDF6EDF50E552E552E7CFD9FF1200A8
:103DC0000F0E946E82681200CF0E9414946E826867
:103DD0001200D9CFE6FFE1CFD9FF040EE126DE6A5B
:103DE000DD6ADECF10F0DDCF11F0D890115004E67F
:103DF000020E105C000E115801E390D0DECFE9FFF7
:103E0000DDCFEAFF550EE926010EEA22EF1C826E95
:103E1000020EDB6A030EDB6A020EDBCF10F0030E2C
:103E2000DBCF11F0D890115004E6040E105C000EA8
:103E300011586EE2020EDBCFE9FF030EDBCFEAFF83
:103E4000590EE926010EEA22EF5082143FE1DECF3F
:103E500014F0DDCF15F0D89014361536D8901436FE
:103E60001536020EDB501424E96E030EDB501520CC
:103E7000EA6ED890E936EA36350EE926010EEA22D6
:103E8000EECF12F0EFCF13F0010E1226000E132228
:103E9000DECF10F0DDCF11F0D89010361136D8906B
:103EA00010361136020EDB501024E96E030EDB5083
:103EB0001120EA6ED890E936EA36350EE926010E71
:103EC000EA2212C0EEFF13C0EDFF1BD0DECF10F0D0
:103ED000DDCF11F0D89010361136D890103611364B
:103EE000020EDB501024E96E030EDB501120EA6E47
:103EF000D890E936EA36350EE926010EEA22EE6A56
:103F0000ED6A020EDB2A030E01E286D7DB2A84D794
:103F1000DF2A010E01E265D7DB2A63D7040EE15CDC
:103F200002E2E16AE552E16EE552E7CFD9FF120005
:103F3000D9CFE6FFE1CFD9FFFD0EDBCFE9FFFE0EC3
:103F4000DBCFEAFFD890E936EA36350EE926010ED6
:103F5000EA22010EEE1804E1ED5002E1010E01D05B
:103F6000000EE552E7CFD9FF12000101050E351909
:103F700003E1365101E1010C000C01010A0E3B196D
:103F800003E13C5101E1010C000C0101010E391962
:103F900001E13A511AE00A0ED8803955000E3A551F
:103FA00015E239C110F03AC111F0030E0D6E0E6A20
:103FB00039C108F03AC109F09EEC25F005C011F0B6
:103FC000010E041803E1115001E1010C000C010184
:103FD000010E371901E138511AE00A0ED880375521
:103FE000000E385515E237C110F038C111F0030E3C
:103FF0000D6E0E6A37C108F038C109F09EEC25F04D
:1040000005C011F0010E041803E1115001E1010C8B
:10401000000CD9CFE6FFE1CFD9FF040EE126DE6A1E
:10402000DD6ADECF10F0DDCF11F0FD0EDBCF12F038
:10403000FE0EDBCF13F011501318E8AE02D013348C
:1040400004D01250105C135011581DE2020EDB6AAE
:10405000030EDB6A020EDBCF10F0030EDBCF11F094
:10406000D890115004E6EE0E105C000E115806E2D6
:10407000020EDB2A030EEEE3DB2AECD7DF2A010E69
:10408000D0E3DB2ACED7040EE15C02E2E16AE5521E
:0A409000E16EE552E7CFD9FF120000
:06409A00FF0EE66EE66A6F
:1040A000E0D8E552E55212000101996B9951E66E94
:1040B000E66AD7D8E552E55212000101991D996FC1
:1040C000E850E66EE66ACDD8E552E5521200480E99
:1040D00001019919996FE850E66EE66AC2D8E55277
:1040E000E5521200240E01019919996FE850E66E0D
:1040F000E66AB7D8E552E5521200120E010199198D
:10410000996FE850E66EE66AACD8E552E5521200C7
:10411000F00E0101991799879951E66EE66AA1D8C8
:10412000E552E5521200F00E010199179985995157
:10413000E66EE66A96D8E552E5521200F00E0101ED
:10414000991799839951E66EE66A8BD8E552E55244
:1041500012000F0E01019917998D9951E66EE66ACA
:1041600080D8E552E55212000F0E01019917998B84
:104170009951E66EE66A75D8E552E55212000F0EC7
:104180000101991799899951E66EE66A6AD8E55254
:10419000E5521200D9CFE6FFE1CFD9FF060EE126A6
:1041A000DE6ADD6AFD0EDBCF08F0FE0EDBCF09F024
:1041B000040E08C0DBFF050E09C0DBFF8192DECFD5
:1041C00010F0DDCF11F0D890115004E6080E105C0D
:1041D000000E11583CE2800EE76E040EDBCF10F0AB
:1041E000050EE7501016116A020E10C0DBFF030E19
:1041F00011C0DBFF040EDBCF10F0050EDBCF11F09A
:10420000D89010361136040E10C0DBFF050E11C019
:10421000DBFFD950020FE96EDACFEAFF800EEE180D
:1042200001E1ED5002E0000E01D0010EE8B0818006
:10423000E8A081908182010EE66EE66A2CD8E552F4
:10424000E5528192DF2A010EBAE3DB2AB8D7060EC7
:10425000E15C02E2E16AE552E16EE552E7CFD9FFA7
:104260001200D9CFE6FFE1CFD9FF8390FD0EDBCF5F
:10427000E6FFFE0EDBCFE6FF8DDFE552E5528380E1
:10428000010EE66EE66A07D8E552E5528390E552E4
:10429000E7CFD9FF1200D9CFE6FFE1CFD9FF040E57
:1042A000E126DE6ADD6ADECF10F0DDCF11F0FD0E13
:1042B000DBCF12F0FE0EDBCF13F011501318E8AE77
:1042C00002D0133404D01250105C135011581DE268
:1042D000020EDB6A030EDB6A020EDBCF10F0030E68
:1042E000DBCF11F0D890115004E6010E105C000EE7
:1042F000115806E2020EDB2A030EEEE3DB2AECD7AE
:10430000DF2A010ED0E3DB2ACED7040EE15C02E205
:0E431000E16AE552E16EE552E7CFD9FF1200F7
:02431E005379D1
:104320006E746178206572726F722120506C6561C5
:1043300073652074727920616761696E2E200D0AA1
:104340000020204175746F6D61746963206D6F6426
:10435000652061637469766174656421002020536F
:104360006C6F77206D6F646520616374697661742A
:104370006564210020204E65772059454C4C4F57ED
:104380002074696D652069733A200020204E65779E
:1043900020475245454E2074696D652069733A2067
:1043A000000D0A00207365636F6E64732E200D0A82
:1043B0000020204E6577205245442074696D6520A9
:1043C00069733A200044617461207265636569769F
:1043D0006564207375636365737366756C6C7921AE
:1043E000200D0A0059656C6C6F772074696D653A11
:1043F0002000477265656E2074696D653A20005231
:1044000065642074696D653A004461746120726569
:104410006365697665642100454E54455220534CCE
:104420004F57204D4F4445004E4F00436F6E666F0F
:10443000726D3F2020205945530054554E3A203389
:104440002E59454C4C4F5700322E475245454E0091
:1044500054554E3A20312E52454400342E534C4F81
:1044600057004D454E553A20332E54554E4E494E29
:104470004700342E20592D52004D414E55414C3AA3
:1044800020332E20472D5200322E20522D59004D20
:10449000414E55414C3A20312E20522D47003C00D0
:1044A000322E4D414E55414C004D454E553A20312E
:1044B0002E4155544F005072657373203120666F42
:1044C00072206D656E750053595354454D27532026
:1044D000574F524B494E470059454C4C4F5720546B
:1044E000494D453A00475245454E2054494D453ABD
:1044F000005375626D69743F20507265737320417B
:1045000021005245442054494D453A0050484153FA
:104510004520313A2059454C4C4F570050484153A3
:104520004520323A205245440050484153452031FD
:104530003A20475245454E00504841534520323AB3
:104540002059454C4C4F5700504841534520323A72
:1045500020475245454E00504841534520313A20AE
:04456000524544007C
:0C456400F28ED08EF28C1200F19CF292CC
:10457000F2881200D8CFE4FFE0CFE4FFE46EDACF98
:10458000E4FFE2CFDAFFE9CFE4FFEACFE4FFF6CFC2
:10459000E4FFF7CFE4FFF5CFE4FFF3CFE4FFF4CF80
:1045A000E4FFFACFE4FF00EE00F0100EE80403E3AE
:1045B000EECFE4FFFBD700EE10F00A0EE80403E3B1
:1045C000EECFE4FFFBD7E652F2A407D074EC16F06E
:1045D000F29476EC16F020EC18F09EA007D05FEC79
:1045E00017F09E9019EC17F02EEC18F09EA207D051
:1045F0007BEC17F09E9277EC17F03CEC18F0A1A240
:1046000007D01EEC18F0A192D8EC17F04AEC18F085
:10461000F2B2F2929EAA03D09E9A3EEC1DF0E552B1
:1046200000EE19F00A0EE80403E3E5CFEDFFFBD737
:1046300000EE0FF0100EE80403E3E5CFEDFFFBD72B
:10464000E5CFFAFFE5CFF4FFE5CFF3FFE5CFF5FFC8
:10465000E5CFF7FFE5CFF6FFE5CFEAFFE5CFE9FFCE
:10466000E5CFDAFFE550E5CFE0FFE5CFD8FF10005A
:10467000DACFE4FFE2CFDAFFE9CFE4FFEACFE4FFED
:10468000F6CFE4FFF7CFE4FFF5CFE4FFF3CFE4FF8D
:10469000F4CFE4FFFACFE4FF00EE00F0100EE804E0
:1046A00003E3EECFE4FFFBD700EE10F00A0EE804C0
:1046B00003E3EECFE4FFFBD7E652F2A407D074EC9D
:1046C00016F0F29476EC16F020EC18F09EA007D0CD
:1046D0005FEC17F09E9019EC17F02EEC18F09EA2EC
:1046E00007D07BEC17F09E9277EC17F03CEC18F0BB
:1046F000A1A207D01EEC18F0A192D8EC17F04AEC5A
:1047000018F0F2B2F2929EAA03D09E9A3EEC1DF0EF
:10471000E55200EE19F00A0EE80403E3E5CFEDFFE1
:10472000FBD700EE0FF0100EE80403E3E5CFEDFF3A
:10473000FBD7E5CFFAFFE5CFF4FFE5CFF3FFE5CFF9
:10474000F5FFE5CFF7FFE5CFF6FFE5CFEAFFE5CFD1
:08475000E9FFE5CFDAFF1100DB
:08475800D9CFE6FFE1CFD9FF44
:10476000E652AE50DF6E01018051050A2BE0010ACE
:1047700022E0070A12E0010A0BE0020A02E0010A45
:1047800057E1210EDF5C55E1876B836B020E4ED043
:10479000210EDF5C15E1030E49D08351EA6A810FD7
:1047A000E96E000EEA22DFCFEFFF832B8551835D98
:1047B00040E3040E3BD0230EDF5C02E1050E36D051
:1047C000010E34D0230EDF5C30E1010E816F520EFA
:1047D0000001815D03E10101340E23D0470E815DAC
:1047E00003E101012F0E1DD0590E815D03E101018E
:1047F0003B0E17D0530E815D03E10101510E11D024
:10480000410E815D03E10101520E0BD0520E815D1C
:1048100009E0470E815D06E0590E815D03E001016C
:10482000C90E876F0101806B04D0010E806F01D02B
:0E483000806BE552E552E7CFD9FF120012006F
:02483E00006A0E
:104840000EAE28EF24F00D6C0E1EE86A0E22001E3C
:1048500009AE30EF24F0086C091EE86A0922001E38
:104860009EEC25F009BE40EF24F000AE000C086C71
:10487000091EE86A0922046C051EE86A0522000C7C
:1048800000BE37EF24F00188FF0C006A0EAE50EF37
:1048900024F00C6C0D1E0E1EE86A0D220E22001E66
:1048A00009AE5AEF24F0076C081E091EE86A0822B8
:1048B0000922001E65EC25F009BE6DEF24F000AE64
:1048C000000C076C081E091EE86A08220922036C06
:1048D000041E051E04220522000C00BE61EF24F018
:0448E0000188FF0C40
:0C48E4001E0EF66E000EF76E000EF86E51
:1048F00001010900F5508F6F0900F550906F03E139
:104900008F6701D03DD00900F5508A6F0900F5503E
:104910008B6F0900F5508C6F09000900F550E96EA6
:104920000900F550EA6E090009000900F5508D6F85
:104930000900F5508E6F09000900F6CF91F1F7CF0D
:1049400092F1F8CF93F18AC1F6FF8BC1F7FF8CC1CA
:10495000F8FF01018D5302E18E5307E00900F55085
:10496000EE6E8D07F8E28E07F9D791C1F6FF92C17E
:10497000F7FF93C1F8FF01018F07000E905BBFD7CF
:02498000120023
:0E498200010E926E0E0EC16EC26A040EC06E61
:10499000C2801200D9CFE6FFE1CFD9FF020EE12697
:1049A000DE6ADD6AC282C2B2FED7C450DE6EDD6A44
:1049B000DECF12F0DDCF13F0D89012361336D89038
:1049C00012361336060EC3CFE7FF070B04E0E742AB
:1049D000E79EE806FCE1E7501224106E000E13205B
:1049E00010C0DEFFDD6EDECF61FFDDCF62FFDECF08
:1049F00010F0DDCF11F010C0F3FF11C0F4FF020E74
:104A0000E15C02E2E16AE552E16EE552E7CFD9FFEF
:024A1000120092
:0E4A120006500B02F3CF02F0F4CF03F00C02BB
:104A2000F3500326000EF420046E06500D02F350DE
:104A30000426000EF420056E06500E02F3500526E3
:104A400007500B02F3500326F4500422000E0522F7
:104A500007500C02F3500426F450052207500D02B3
:104A6000F350052608500B02F3500426F45005229B
:104A700008500C02F350052609500B02F35005268E
:024A8000120022
:0E4A8200056A046A036A026A200EE76ED89085
:104A9000063607360836093602360336043605363A
:104AA0000B50025C0C5003580D5004580E50055822
:104AB00009E30B50025E0C50035A0D50045A0E507D
:0A4AC000055A062AE72EE4D712007B
:064ACA00056A046A036A9C
:104AD000180EE76ED89007360836093603360436C6
:104AE00005360C50035C0D5004580E50055807E372
:104AF0000C50035E0D50045A0E50055A072AE72E3B
:044B0000EAD71200DE
:0C4B0400CA94CA90CA829B0ECB6EBD986A
:104B1000BD9ABE6ABD9CBD9EBD90BD92BD84BD8642
:104B20009494CA841200D9CFE6FFE1CFD9FFFE0EDC
:0C4B3000DB50BE6EE552E7CFD9FF12004B
:044B3C00056A046A98
:104B4000100EE76ED89008360936043605360D503B
:104B5000045C0E50055805E30D50045E0E50055AD6
:084B6000082AE72EF0D712002D
:084B6800800EF36E00EE00F078
:104B70000F0E01D81200EA6002D0EE6AFCD7F350A3
:084B8000E9601200EE6AFCD7A7
:084B88001EEE00F02EEE00F01D
:104B9000F86A019C72EC24F003EC00F046EC00F0A3
:044BA000FBD712002D
:0C4BA400056A080EE76ED8900936053649
:104BB0000E50055C02E3056E092AE72EF7D71200B6
:104BC00000000000000000000000000000000000E5
:104BD00000000000000000000100010001000100D1
:0C4BE000000000000000000303220000A1
:044BEC00C0FFF9FF0E
:104BF000A4FFB0FF99FF92FF82FFF8FF80FF90FFB4
:104C0000FFFFFF0105030200000305020305020088
:104C10000014141400004600000000000000000012
:014C20000093
:0F4C210000000000000000001010101010101014
:104C30001018181818181818181C1C1C1C1C1C1CE0
:104C40001C1E1E1E1E1E1E1E1E1F1F1F1F1F1F1F7F
:104C50001F00000000000000000000000000000035
:104C60000000000000000000000000000000000044
:104C70000000000000000000000000000000000034
:024C8000000032
:0E4C8200000000D000222222072509100001A8
:0D4C90000000000000000000000000000017
:034C9D0000000014
:104CA0000000000000000000000000000000000004
:104CB0000000000000000000000000000010204084
:064CC0008001020408144B
:020000040030CA
:0100010002FC
:0100020003FA
:010003001EDE
:010005008179
:010006008178
:010008000FE8
:01000900C036
:01000A000FE6
:01000B00E014
:01000C000FE4
:01000D0040B2
:00000001FF
